S01400004D61696E2050726F6772616D2E7372656393
S11300000C947D000C949A000C949A000C949A0021
S11300100C9402030C949A000C949A000C949A0089
S11300200C949A000C949A000C949A000C949A00E4
S11300300C949A000C949A000C949A000C949A00D4
S11300400C949A000C949A000C949A000C949A00C4
S11300500C949A000C949A000C949A000C949A00B4
S11300600C949A000C949A000C949A000C949A00A4
S11300700C949A000C949A000C949A000C949A0094
S11300800C949A000C949A000C949A000C94A90174
S11300900C949A000C949A000C949A000C949A0074
S11300A00C949A000C949A000C949A000C949A0064
S11300B00C949A00072C7AA5BA6CC590DA3B936528
S11300C0FC8BBC53F810FD3C5692834DBD879D3A82
S11300D0B63DCBC9BF5BBE73DA0FC93F05A84CCD93
S11300E0B2D44EB93836A9020C50B9918688083C6E
S11300F0A6AAAA2ABE000000803F11241FBECFEF8B
S1130100D8E0DEBFCDBF11E0A0E0B1E0EAE1F3E169
S113011002C005900D92A63DB107D9F722E0A6EDE5
S1130120B1E001C01D92AA30B207E1F70E94260295
S11301300C948B090C9400008BB970987198729A86
S113014085E08A95F1F7000072988FE891E00197B5
S1130150F1F700C0000008958BB9709A7198729AF3
S113016085E08A95F1F7000072988FE891E0019795
S1130170F1F700C0000008958FEF8AB98DB9729825
S11301808FE39FE10197F1F700C0000088E30E942C
S11301909C008CE00E949C0081E00E949C008FE304
S11301A09FE10197F1F700C0000086E00E949C00E7
S11301B00895CF93DF9300D000D0CDB7DEB790E899
S11301C0998390EC9A8394E99B8394ED9C83FE013C
S11301D0E60FF11D81509081890F0E949C008FE8E9
S11301E091E00197F1F700C000000F900F900F907D
S11301F00F90DF91CF9108950F931F93CF93FC013C
S11302008081882359F08F01C0E00E94AC00CF5F49
S1130210F801EC0FF11D80818111F7CFCF911F916F
S11302200F910895EF92FF920F931F93CF93DF9353
S1130230CDB7DEB72B970FB6F894DEBF0FBECDBF98
S11302408C019B018BE0E2E0F1E0DE01119601906C
S11302500D928A95E1F70A3011050CF45AC0043660
S113026011050CF580E3DB018C93C8016AE070E0B2
S11302700E946309E1E0F0E0EC0FFD1FE60FF71FB9
S11302804081F90141834EE24283E1E0F0E0EC0F6A
S1130290FD1FE80FF91F8081D90113968C931397E2
S11302A014961C9249C0C80164E670E00E94630978
S11302B07C01E1E0F0E0EC0FFD1FE60FF71F808109
S11302C0F9018083EAE0F0E0C801BF010E946309FC
S11302D0CB01BF010E946309A1E0B0E0AC0FBD1FD8
S11302E0A80FB91F8C91D90111968C9311978EE2A6
S11302F012968C93C701BF010E946309E1E0F0E00C
S1130300EC0FFD1FE80FF91F8081F901838314822C
S113031013C080E3DB018C9311968C9311978EE2CA
S113032012968C931297FE01E00FF11F81811396B0
S11303308C93139714961C922B960FB6F894DEBFE9
S11303400FBECDBFDF91CF911F910F91FF90EF9022
S113035008951F920F920FB60F9211248F939F93BB
S113036087EF92EC90939500809394008091D6014E
S11303709091D70101969093D7018093D6018091F3
S1130380D6019091D701059791F48FE694E9909363
S11303908900809388001092950010929400109226
S11303A0710081E090E09093F9018093F8019F91AE
S11303B08F910F900FBE0F901F901895CF93DF93DE
S11303C073986B9887B1897E87B9219A8DEF85B927
S11303D082EC809380008AE1809381008FE39CE922
S11303E090938700809386008FE99CE8909389001E
S11303F0809388001092900085E080939100C1E77B
S1130400D0E0188287EF92EC90939500809394004B
S113041078940E94BC0061E081E00E94D9008DE0E4
S113042091E00E94FC0062E081E00E94D9008DE12D
S113043091E00E94FC0081E088838091F801909112
S1130440F9010197D1F7DF91CF910895E8EDF1E03B
S113045080E3808381839EE292838383E8EEF1E0EC
S113046080838183928383830E94DE0161E081E043
S11304700E94D9008CE291E00E94FC0062E081E0DD
S11304800E94D9008DE391E00E94FC002FEF83EDE0
S113049090E3215080409040E1F700C000008EE4DA
S11304A091E00E94FC008FE591E00E94FC00E8E6E8
S11304B0F0E0808182608083ECE6F0E080818661F8
S11304C0808361E081E00E94D90080E791E00E948E
S11304D0FC0062E081E00E94D90081E891E00E9482
S11304E0FC00FFCFEF92FF920F931F93CF93DF9304
S11304F0EC018B017A0161E081E00E94D900EA9469
S1130500EF2829F480E791E00E94FC0004C080E910
S113051091E00E94FC0062E081E00E94D9008EE636
S113052091E00E94FC00C8010E94FC0062E086E0A9
S11305300E94D9008EE691E00E94FC0062E08AE00D
S11305400E94D9008EE691E00E94FC00CE010E9438
S1130550FC0062E08FE00E94D9008EE691E00E94E8
S1130560FC00DF91CF911F910F91FF90EF900895C0
S1130570CF93DF93EC0161E081E00E94D90081EA2E
S113058091E00E94FC0062E081E00E94D90082EBCD
S113059091E00E94FC0062E082E00E94D900CE015A
S11305A00E94FC0062E086E00E94D9008FE991E09D
S11305B00E94FC00DF91CF910895CF93DF93EC016B
S11305C061E081E00E94D90081EA91E00E94FC0090
S11305D062E08AE00E94D90082EB91E00E94FC0074
S11305E062E08BE00E94D900CE010E94FC0062E030
S11305F08FE00E94D9008FE991E00E94FC00DF9116
S1130600CF9108951F920F920FB60F921124CF929B
S1130610DF92EF92FF922F933F934F935F936F93E9
S11306207F938F939F93AF93BF93CF93DF93EF9376
S1130630FF938FE19EE40197F1F700C0000086B1BB
S11306408B3709F093C080910802909109028130A0
S11306509105D1F01CF4892B41F088C082309105BA
S1130660A9F1039709F45BC081C040E050E068EE53
S113067071E088ED91E00E94720281E090E0909335
S113068009028093080272C08AE090E0909301010D
S113069080930001F89461E081E00E94D90084EB2A
S11306A091E00E94FC009FEF23ED80E391502040F5
S11306B08040E1F700C0000061E081E00E94D900C1
S11306C080E991E00E94FC00789450C020910602D9
S11306D0309107028091000190910101820F931FD4
S11306E0873991050CF042C020910602309107022F
S11306F08091000190910101820F931F9093070252
S113070080930602809106029091070268EE71E0E0
S11307100E94120188EE91E00E94B80227C0209145
S11307200402309105028091000190910101820F31
S1130730931F85389340D4F420910402309105022C
S11307408091000190910101820F931F9093050203
S113075080930402809104029091050268ED71E097
S11307600E94120188ED91E00E94DD0286B18D376E
S113077009F08CC0809108029091090281309105A2
S113078061F11CF4892B41F081C08230910591F113
S1130790039709F456C07AC081E090E09093010178
S11307A080930001F89461E00E94D90085EC91E007
S11307B00E94FC008FEF93ED20E381509040204095
S11307C0E1F700C0000061E081E00E94D90080E709
S11307D091E00E94FC00789459C041E050E068EE3A
S11307E071E088ED91E00E94720210920902109269
S11307F008024CC0809106029091070220910001EA
S113080030910101821B930B0AF440C080910602CF
S1130810909107022091000130910101821B930BFA
S1130820909307028093060280910602909107023A
S113083068EE71E00E94120188EE91E00E94B80215
S113084025C080910402909105022091000130910D
S11308500101821B930BD2F0809104029091050256
S11308602091000130910101821B930B90930502AA
S113087080930402809104029091050268ED71E076
S11308800E94120188ED91E00E94DD0286B18F364C
S113089009F09AC180910802909109028130910572
S11308A0F1F01CF4892B41F08FC18230910551F194
S11308B0039709F4DFC088C1809106029091070272
S11308C068EE71E00E94120188EE91E00E94B80285
S11308D082E090E0909309028093080275C18091B0
S11308E004029091050268ED71E00E94120188ED06
S11308F091E00E94DD0283E090E0909309028093EE
S1130900080262C181E090E09093FB018093FA01B8
S11309106091060270910702072E000C880B990B58
S11309200E942B07609300027093010280930202DD
S1130930909303026091000270910102809102027F
S11309409091030220E030E040E251E40E948106ED
S11309506093000270930102809302029093030259
S11309606091000270910102809102029091030251
S11309702091000230910102409102025091030241
S11309800E94950860930002709301028093020212
S113099090930302C0900002D0900102E090020202
S11309A0F0900302A701960160E070E081E693E411
S11309B00E940F060E94080920E030E040E751E45D
S11309C00E948106609300027093010280930202E8
S11309D090930302609100027091010280910202DF
S11309E0909103020E94FE0520EE3EE245E652E4A9
S11309F00E949508609300027093010280930202A2
S1130A0090930302609100027091010280910202AE
S1130A109091030220E030E040E251E40E94950806
S1130A200E9466070E94F306709305026093040215
S1130A3080910602909107028639910531F484E889
S1130A4093E09093050280930402809104029091B4
S1130A50050268ED71E00E94120141E050E068EE89
S1130A6071E088ED91E00E947202109209021092E6
S1130A700802AAC0C1E0D0E0D093FB01C093FA0100
S1130A806091040270910502072E000C880B990BEB
S1130A900E942B076093FC017093FD018093FE017B
S1130AA09093FF016091FC017091FD018091FE0122
S1130AB09091FF0120E030E040E251E40E94810681
S1130AC025E33AEF4EE85CE30E9495086093FC014D
S1130AD07093FD018093FE019093FF016091FC01EE
S1130AE07091FD018091FE019091FF010E947C06AE
S1130AF020E030E040E751E40E9495086093FC0157
S1130B007093FD018093FE019093FF016091FC01BD
S1130B107091FD018091FE019091FF012091FC01F3
S1130B203091FD014091FE015091FF010E94950812
S1130B306093FC017093FD018093FE019093FF018B
S1130B40C090FC01D090FD01E090FE01F090FF0107
S1130B50A701960160E070E081E693E40E940F062D
S1130B600E9408096093FC017093FD018093FE01CB
S1130B709093FF016091FC017091FD018091FE0151
S1130B809091FF0120E030E040E251E40E9495089A
S1130B900E9466070E94F3067093070260930602A0
S1130BA0809106029091070268EE71E00E941201A2
S1130BB040E050E068EE71E088ED91E00E9472023E
S1130BC0D0930902C093080286B18F37E9F7FF91E9
S1130BD0EF91DF91CF91BF91AF919F918F917F91D1
S1130BE06F915F914F913F912F91FF90EF90DF9024
S1130BF0CF900F900FBE0F901F9018959F939F77E3
S1130C000E947D070F90002042F49058A2EA2AED3A
S1130C103FE049E450E40E9427060C942F08505802
S1130C20BB27AA270E9427060C942F080E94F607C8
S1130C3038F00E94FD0720F039F49F3F19F426F4A0
S1130C400C94CC070EF4E095E7FB0C949D07E92F78
S1130C500E94540858F3BA1762077307840795076C
S1130C6020F079F4A6F50C948E080EF4E0950B2E82
S1130C70BA2FA02D0B01B90190010C01CA01A001EA
S1130C801124FF27591B99F0593F50F4503E68F145
S1130C901A16F040A22F232F342F4427585FF3CF86
S1130CA0469537952795A795F0405395C9F77EF457
S1130CB01F16BA0B620B730B840BBAF09150A1F0A0
S1130CC0FF0FBB1F661F771F881FC2F70EC0BA0F26
S1130CD0621F731F841F48F4879577956795B795AE
S1130CE0F7959E3F08F0B0CF9395880F08F09927A9
S1130CF0EE0F9795879508950E940608E3950C9446
S1130D0040080E9495060C942F080E94FD0758F095
S1130D100E94F60740F029F45F3F29F00C949D07E8
S1130D2051110C948F080C94CC070E94540868F35A
S1130D309923B1F3552391F3951B550BBB27AA2790
S1130D4062177307840738F09F5F5F4F220F331FCA
S1130D50441FAA1FA9F335D00E2E3AF0E0E832D092
S1130D6091505040E695001CCAF72BD0FE2F29D095
S1130D70660F771F881FBB1F261737074807AB0767
S1130D80B0E809F0BB0B802DBF01FF2793585F4FDC
S1130D903AF09E3F510578F00C949D070C948F080F
S1130DA05F3FE4F3983ED4F3869577956795B795BE
S1130DB0F7959F5FC9F7880F911D9695879597F9C9
S1130DC00895E1E0660F771F881FBB1F6217730742
S1130DD08407BA0720F0621B730B840BBA0BEE1F57
S1130DE088F7E09508950E94FA066894B1110C946E
S1130DF08F0808950E945C0888F09F5798F0B92FD7
S1130E009927B751B0F0E1F0660F771F881F991F3B
S1130E101AF0BA95C9F714C0B13091F00E948E0847
S1130E20B1E008950C948E08672F782F8827B85F57
S1130E3039F0B93FCCF3869577956795B395D9F793
S1130E403EF490958095709561957F4F8F4F9F4F9D
S1130E500895E89409C097FB3EF4909580957095A9
S1130E6061957F4F8F4F9F4F9923A9F0F92F96E9F2
S1130E70BB279395F695879577956795B795F11167
S1130E80F8CFFAF4BB0F11F460FF1BC06F5F7F4F04
S1130E908F4F9F4F16C0882311F096E911C0772316
S1130EA021F09EE8872F762F05C0662371F096E81F
S1130EB0862F70E060E02AF09A95660F771F881FEE
S1130EC0DAF7880F9695879597F908950E94760822
S1130ED090F09F3748F4911116F00C948F0860E05D
S1130EE070E080E89FEB089526F41B16611D711DC8
S1130EF0811D0C94A3070C94BE07DF93CF931F931B
S1130F000F938B01EC01E4EBF0E00E94CF070E9409
S1130F102F089801AE018B01EC0160E070E080E8DD
S1130F209FE30E940F060E9408099801AE010F91E9
S1130F301F91CF91DF910C94A80897F99F6780E8DF
S1130F4070E060E00895882371F4772321F09850CD
S1130F50872B762F07C0662311F499270DC0905173
S1130F60862B70E060E02AF09A95660F771F881F41
S1130F70DAF7880F9695879597F908959F3F31F092
S1130F80915020F4879577956795B795880F911DB3
S1130F909695879597F908959FEF80EC0895DF93D0
S1130FA0CF931F930F93FF92EF92DF927B018C01FB
S1130FB0689406C0DA2EEF010E94A808FE01E894A6
S1130FC0A5912591359145915591A6F3EF010E9484
S1130FD02706FE019701A801DA9469F7DF90EF90E4
S1130FE0FF900F911F91CF91DF91089500240A94EF
S1130FF01616170618060906089500240A941216F0
S113100013061406050608950C94CC070E945C0888
S1131010D8F3E894E0E0BB279F57F0F02AED3FE0D7
S113102049EC06C0EE0FBB0F661F771F881F28F020
S1131030B23A62077307840728F0B25A620B730B43
S1131040840BE3959A9572F7803830F49A95BB0F28
S1131050661F771F881FD2F790480C94C007092E8B
S11310600394000C11F4882352F0BB0F40F4BF2BFF
S113107011F460FF04C06F5F7F4F8F4F9F4F08953F
S1131080EF93E0FF07C0A2EA2AED3FE049EC5FEBF3
S11310900E9427060E942F080F90039401FC905889
S11310A0ECEDF0E00C944F0957FD9058440F551F98
S11310B059F05F3F71F04795880F97FB991F61F0D6
S11310C09F3F79F087950895121613061406551F4D
S11310D0F2CF4695F1DF08C0161617061806991FB9
S11310E0F1CF869571056105089408950E945C0806
S11310F0A0F0BEE7B91788F4BB279F3860F4161632
S1131100B11D672F782F8827985FF7CF869577953D
S11311106795B11D93959639C8F30895E894BB2754
S113112066277727CB0197F908950E94A8080C94A5
S11311302F080E94F60738F00E94FD0720F095233F
S113114011F00C949D070C94CC0711240C948F0877
S11311500E94540870F3959FC1F3950F50E0551FFA
S1131160629FF001729FBB27F00DB11D639FAA27F8
S1131170F00DB11DAA1F649F6627B00DA11D661F47
S1131180829F2227B00DA11D621F739FB00DA11D68
S1131190621F839FA00D611D221F749F3327A00D22
S11311A0611D231F849F600D211D822F762F6A2FBE
S11311B011249F5750409AF0F1F088234AF0EE0F23
S11311C0FF1FBB1F661F771F881F91505040A9F750
S11311D09E3F510580F00C949D070C948F085F3F4F
S11311E0E4F3983ED4F3869577956795B795F7958C
S11311F0E7959F5FC1F7FE2B880F911D9695879504
S113120097F9089519F416F40C94CC070C94BE07BE
S11312100E945C08B8F39923C9F3B6F39F57550BA2
S113122087FF0E9448090024A0E640EA9001805804
S11312305695979528F4805C660F771F881F20F0D9
S113124026173707480730F4621B730B840B2029D9
S113125031294A2BA69517940794202531254A272E
S113126058F7660F771F881F20F02617370748079F
S113127030F4620B730B840B200D311D411DA095BE
S113128081F7B901842F9158880F96958795089511
S113129091505040660F771F881FD2F708959F938F
S11312A08F937F936F93FF93EF939B01AC010E9405
S11312B09508EF91FF910E94CF072F913F914F9195
S11312C05F910C94950897FB072E16F4009407D0B1
S11312D077FD09D00E94770907FC05D03EF490956C
S11312E081959F4F0895709561957F4F0895AA1B2E
S11312F0BB1B51E107C0AA1FBB1FA617B70710F0FD
S1131300A61BB70B881F991F5A95A9F7809590952E
S10D1310BC01CD010895F894FFCF4D
S113131A0100303132333435363738390053746189
S113132A7274696E672073797374656D00506C65A5
S113133A61736520776169742E2E2E005379737454
S113134A656D2073746172742020202000636F6DB0
S113135A706C657465642120202020202000456E6D
S113136A61626C696E672055492E2E2E2020004535
S113137A6E6A6F7921203A2920202020202020001B
S113138A5B4845494748545D2020414E474C452017
S113139A002030302E30202020202030302E300003
S11313AA2048454947485420205B414E474C455DF7
S11313BA0020484549474854202020414E474C457F
S11313CA20005B004F72646572202B2D312020208F
S11313DA20202020004F72646572202B2D2E31208C
S10913EA20202020000079
S9030000FC
