S01400004D61696E2050726F6772616D2E7372656393
S11300000C947D000C949A000C949A000C949A0021
S11300100C94FC030C949A000C949A000C949A008F
S11300200C949A000C949A000C949A000C949A00E4
S11300300C949A000C949A000C949A000C949A00D4
S11300400C949A000C949A000C949A000C949A00C4
S11300500C949A000C947B010C949A000C949A00D2
S11300600C949A000C949A000C949A000C949A00A4
S11300700C949A000C949A000C949A000C949A0094
S11300800C949A000C949A000C949A000C944601D7
S11300900C949A000C949A000C949A000C949A0074
S11300A00C949A000C949A000C949A000C949A0064
S11300B00C949A00072C7AA5BA6CC590DA3B936528
S11300C0FC8BBC53F810FD3C5692834DBD879D3A82
S11300D0B63DCBC9BF5BBE73DA0FC93F05A84CCD93
S11300E0B2D44EB93836A9020C50B9918688083C6E
S11300F0A6AAAA2ABE000000803F11241FBECFEF8B
S1130100D8E0DEBFCDBF11E0A0E0B1E0E0E2F4E171
S113011002C005900D92AE3BB107D9F722E0AEEBD9
S1130120B1E001C01D92A430B207E1F70E94EE01D4
S11301300C940E0A0C9400008BB970987198729A02
S113014085E08A95F1F7000072988FE891E00197B5
S1130150F1F700C0000008958BB9709A7198729AF3
S113016085E08A95F1F7000072988FE891E0019795
S1130170F1F700C0000008958FEF8AB98DB9729825
S11301808FE39FE10197F1F700C0000088E30E942C
S11301909C008CE00E949C0081E00E949C008FE304
S11301A09FE10197F1F700C0000086E00E949C00E7
S11301B00895CF93DF9300D000D0CDB7DEB790E899
S11301C0998390EC9A8394E99B8394ED9C83FE013C
S11301D0E60FF11D81509081890F0E949C008FE8E9
S11301E091E00197F1F700C000000F900F900F907D
S11301F00F90DF91CF9108950F931F93CF93FC013C
S11302008081882359F08F01C0E00E94AC00CF5F49
S1130210F801EC0FF11D80818111F7CFCF911F916F
S11302200F910895CF93DF93CDB7DEB72B970FB619
S1130230F894DEBF0FBECDBF9B014BE0EAE0F1E0D6
S1130240DE01119601900D924A95E1F76AE070E0A3
S11302500E94E609E1E0F0E0EC0FFD1FE60FF71F56
S11302604081F9014083E1E0F0E0EC0FFD1FE80F6D
S1130270F91F8081F901818312822B960FB6F894BD
S1130280DEBF0FBECDBFDF91CF9108951F920F92B5
S11302900FB60F9211248F939F9387EF92EC909354
S11302A09500809394008091BE019091BF010196C6
S11302B09093BF018093BE018091BE019091BF01D4
S11302C0059791F48FE694E99093890080938800D0
S11302D010929500109294001092710081E090E0C9
S11302E09093E3018093E2019F918F910F900FBE51
S11302F00F901F9018951F920F920FB60F92112412
S11303008F939F93EF93FF9380917800909179005E
S11303109093E1018093E001EAE7F0E0808180645A
S11303208083FF91EF919F918F910F900FBE0F905B
S11303301F901895CF93DF933B98439A83E480935F
S11303407C008FE880937A0010927B0073986B98FE
S113035087B1897E87B9219A8DEF85B982EC809324
S113036080008AE1809381008FE39CE99093870069
S1130370809386008FE99CE890938900809388009D
S11303801092900085E080939100C1E7D0E018823C
S113039087EF92EC909395008093940078940E9458
S11303A0BC0061E081E00E94D90085E191E00E94F7
S11303B0FC0062E081E00E94D90085E291E00E94A5
S11303C0FC0081E08883739A6B9A8091E20190919A
S11303D0E3010197D1F7DF91CF910895CF93DF9394
S11303E000D000D0CDB7DEB7E0ECF1E080E380834D
S11303F081831282E0EDF1E08083818312820E9486
S11304009A01EAE7F0E080818064808361E081E022
S11304100E94D90084E391E00E94FC0062E081E044
S11304200E94D90085E491E00E94FC002FEF33ED97
S113043040E3215030404040E1F700C0000061E05B
S113044081E00E94D90086E591E00E94FC0062E010
S113045081E00E94D90087E691E00E94FC005FEFF2
S113046087EA91E6515080409040E1F700C00000D7
S1130470E8E6F0E0808182608083ECE6F0E0808151
S11304808661808361E081E00E94D90088E791E081
S11304900E94FC0062E081E00E94D90089E891E0BA
S11304A00E94FC008091E0019091E1011C821B827A
S11304B00091E0011091E1018091E4019091E50146
S11304C00197F1F46091EE017091EF01072E000C99
S11304D0880B990B0E94AE0724EA30E74DE750E4FD
S11304E00E94180920E030E040E651E40E9493069F
S11304F00E9476077C836B831092E5011092E401DD
S1130500EB81FC81E01BF10B8F018091FE01909146
S1130510FF018E0F9F1F9093FF018093FE01809136
S11305200002909101029F01281B390B3093FD01B9
S11305302093FC018090060190900701A09008018F
S1130540B09009012090FE013090FF014090F40129
S11305505090F5016090F6017090F7014091FC0114
S11305605091FD015A834983C0900201D090030148
S1130570E0900401F0900501BF01FF0F880B990B77
S11305800E94AE07A50194010E9418094B015C0169
S1130590B101330C880B990B0E94AE07A3019201A1
S11305A00E9418099B01AC01C501B4010E94930685
S11305B04B015C01E981FA81BF01FF0F880B990BA4
S11305C00E94AE07A70196010E9418099B01AC0185
S11305D0C501B4010E9493060E9476077093FB0143
S11305E06093FA018091FA019091FB0191958195B4
S11305F091099093030280930202E8E8F0E080817D
S113060091812091020230910302820F931F81375E
S11306109449D8F4E8E8F0E08081918120910202C5
S113062030910302820F931F803A9C4870F0E8E8EF
S1130630F0E08081918120910202309103020197C0
S1130640820F931F9183808354C0E8E8F0E0808197
S113065091812091020230910302820F931F81370E
S1130660944910F1E8E8F0E0808191812091020240
S11306703091030280579449820F931F9093F9019C
S11306808093F801808191812091020230910302CC
S11306904091F8015091F901241B350B0197820F09
S11306A0931F9183808325C0E8E8F0E080819181E5
S11306B0209102023091030240EA5CE8481B590B86
S11306C0CA01821B930B9093F9018093F801208156
S11306D0318140910202509103028091F80190917E
S11306E0F901840F951F2F5F3F4F820F931F918352
S11306F0808310930102009300028FE99FE0019729
S1130700F1F700C00000D4CEEF92FF920F931F9335
S1130710CF93DF93EC018B017A0161E081E00E94C9
S1130720D900EA94EF2829F488E791E00E94FC00BC
S113073004C089E991E00E94FC0062E081E00E942B
S1130740D90084E791E00E94FC00C8010E94FC00EB
S113075086E791E00E94FC0062E08CE00E94D900F0
S113076086E791E00E94FC00CE010E94FC0086E72F
S113077091E00E94FC00DF91CF911F910F91FF90B7
S1130780EF900895CF93DF93EC0161E081E00E9444
S1130790D9008AEA91E00E94FC0062E083E00E94B2
S11307A0D9008BEB91E00E94FC00CE010E94FC007A
S11307B088EA91E00E94FC00DF91CF910895CF93E5
S11307C0DF93EC0161E081E00E94D9008AEA91E0C4
S11307D00E94FC0062E08CE00E94D9008BEB91E067
S11307E00E94FC00CE010E94FC0088EA91E00E9475
S11307F0FC00DF91CF9108951F920F920FB60F92D4
S11308001124CF92DF92EF92FF922F933F934F9355
S11308105F936F937F938F939F93AF93BF93CF9384
S1130820DF93EF93FF938FE19EE40197F1F700C00C
S1130830000086B1833709F06BC08091F20190917A
S1130840F30182309105A9F083309105D1F1892B10
S113085009F05EC040E050E060ED71E080EC91E0B2
S11308600E94840381E090E09093F3018093F2016D
S11308704FC02091F0013091F101809100019091DD
S11308800101820F931F40970CF042C02091F001A8
S11308903091F1018091000190910101820F931F29
S11308A09093F1018093F0018091F0019091F10116
S11308B060ED71E00E94120180ED91E00E94C2039C
S11308C027C02091EE013091EF01809100019091B9
S11308D00101820F931F8B359105D4F42091EE0111
S11308E03091EF018091000190910101820F931FDB
S11308F09093EF018093EE018091EE019091EF01CE
S113090060EC71E00E94120180EC91E00E94DF0330
S113091086B1853709F066C08091F2019091F301A8
S11309208230910599F083309105B9F1019709F06E
S113093059C041E050E060ED71E080EC91E00E942C
S113094084031092F3011092F2014CC08091F001E3
S11309509091F1012091000130910101821B930BD0
S11309600AF440C08091F0019091F10120910001BE
S113097030910101821B930B9093F1018093F0015C
S11309808091F0019091F10160ED71E00E941201FB
S113099080ED91E00E94C20325C08091EE01909108
S11309A0EF012091000130910101821B930BD2F0E1
S11309B08091EE019091EF012091000130910101AD
S11309C0821B930B9093EF018093EE018091EE01D3
S11309D09091EF0160EC71E00E94120180EC91E0D3
S11309E00E94DF0386B1873609F071C18091F2015C
S11309F09091F30181309105F1F01CF4892B41F0C1
S1130A0066C18230910551F1039709F4C2C05FC1F8
S1130A108091F0019091F10160ED71E00E9412016A
S1130A2080ED91E00E94C20382E090E09093F30194
S1130A308093F2014CC18091EE019091EF0160EC42
S1130A4071E00E94120180EC91E00E94DF0383E0D8
S1130A5090E09093F3018093F20139C181E090E03A
S1130A609093E5018093E4016091F0017091F101AC
S1130A70072E000C880B990B0E94AE076093EA01C5
S1130A807093EB018093EC019093ED016091EA0186
S1130A907091EB018091EC019091ED012091EA01BC
S1130AA03091EB014091EC015091ED010E94180945
S1130AB06093EA017093EB018093EC019093ED0154
S1130AC0C090EA01D090EB01E090EC01F090ED01D0
S1130AD0A701960160E070E081E693E40E9492062B
S1130AE00E948B0920E030E040E751E40E940407B3
S1130AF06093EA017093EB018093EC019093ED0114
S1130B006091EA017091EB018091EC019091ED010B
S1130B100E94810620EE3EE245E652E40E94180956
S1130B206093EA017093EB018093EC019093ED01E3
S1130B306091EA017091EB018091EC019091ED01DB
S1130B400E94E9070E9476077093EF016093EE011B
S1130B508091F0019091F1010F9731F48AE590E0D2
S1130B609093EF018093EE018091EE019091EF015B
S1130B7060EC71E00E94120141E050E060ED71E030
S1130B8080EC91E00E9484031092F3011092F20130
S1130B909EC0C1E0D0E0D093E501C093E401609130
S1130BA0EE017091EF01072E000C880B990B0E9447
S1130BB0AE076093E6017093E7018093E801909398
S1130BC0E9016091E6017091E7018091E80190915B
S1130BD0E90125E33AEF4EE85CE30E9418096093CB
S1130BE0E6017093E7018093E8019093E901609135
S1130BF0E6017091E7018091E8019091E9010E947A
S1130C00FF0620E030E040E751E40E9418096093B9
S1130C10E6017093E7018093E8019093E901609104
S1130C20E6017091E7018091E8019091E90120913A
S1130C30E6013091E7014091E8015091E9010E94F9
S1130C4018096093E6017093E7018093E80190939B
S1130C50E901C090E601D090E701E090E801F0904E
S1130C60E901A701960160E070E081E693E40E9447
S1130C7092060E948B096093E6017093E7018093CA
S1130C80E8019093E9016091E6017091E701809198
S1130C90E8019091E9010E94E9070E9476077093A8
S1130CA0F1016093F0018091F0019091F10160ED08
S1130CB071E00E94120140E050E060ED71E080ECD0
S1130CC091E00E948403D093F301C093F20186B1B2
S1130CD08737E9F7FF91EF91DF91CF91BF91AF9102
S1130CE09F918F917F916F915F914F913F912F9140
S1130CF0FF90EF90DF90CF900F900FBE0F901F905A
S1130D0018959F939F770E9400080F90002042F44B
S1130D109058A2EA2AED3FE049E450E40E94AA0672
S1130D200C94B2085058BB27AA270E94AA060C9418
S1130D30B2080E94790838F00E94800820F039F443
S1130D409F3F19F426F40C944F080EF4E095E7FB4A
S1130D500C942008E92F0E94D70858F3BA176207A9
S1130D6073078407950720F079F4A6F50C9411090C
S1130D700EF4E0950B2EBA2FA02D0B01B9019001B2
S1130D800C01CA01A0011124FF27591B99F0593FF6
S1130D9050F4503E68F11A16F040A22F232F342F3E
S1130DA04427585FF3CF469537952795A795F0408C
S1130DB05395C9F77EF41F16BA0B620B730B840BA1
S1130DC0BAF09150A1F0FF0FBB1F661F771F881F59
S1130DD0C2F70EC0BA0F621F731F841F48F48795B1
S1130DE077956795B795F7959E3F08F0B0CF9395A3
S1130DF0880F08F09927EE0F9795879508950E941C
S1130E008908E3950C94C3080E9418070C94B2084F
S1130E100E94800858F00E94790840F029F45F3F4E
S1130E2029F00C94200851110C9412090C944F08C9
S1130E300E94D70868F39923B1F3552391F3951BC6
S1130E40550BBB27AA2762177307840738F09F5FE7
S1130E505F4F220F331F441FAA1FA9F335D00E2E54
S1130E603AF0E0E832D091505040E695001CCAF7C1
S1130E702BD0FE2F29D0660F771F881FBB1F261784
S1130E8037074807AB07B0E809F0BB0B802DBF015B
S1130E90FF2793585F4F3AF09E3F510578F00C942A
S1130EA020080C9412095F3FE4F3983ED4F386952E
S1130EB077956795B795F7959F5FC9F7880F911D4B
S1130EC09695879597F90895E1E0660F771F881F37
S1130ED0BB1F621773078407BA0720F0621B730BEA
S1130EE0840BBA0BEE1F88F7E09508950E947D07E6
S1130EF06894B1110C94120908950E94DF0888F0D7
S1130F009F5798F0B92F9927B751B0F0E1F0660FC9
S1130F10771F881F991F1AF0BA95C9F714C0B1300A
S1130F2091F00E941109B1E008950C941109672F02
S1130F30782F8827B85F39F0B93FCCF38695779539
S1130F406795B395D9F73EF4909580957095619522
S1130F507F4F8F4F9F4F0895E89409C097FB3EF44D
S1130F6090958095709561957F4F8F4F9F4F9923F2
S1130F70A9F0F92F96E9BB279395F6958795779570
S1130F806795B795F111F8CFFAF4BB0F11F460FF30
S1130F901BC06F5F7F4F8F4F9F4F16C0882311F088
S1130FA096E911C0772321F09EE8872F762F05C09C
S1130FB0662371F096E8862F70E060E02AF09A9537
S1130FC0660F771F881FDAF7880F9695879597F92C
S1130FD008950E94F90890F09F3748F4911116F093
S1130FE00C94120960E070E080E89FEB089526F409
S1130FF01B16611D711D811D0C9426080C9441085B
S1131000DF93CF931F930F938B01EC01E4EBF0E09C
S11310100E9452080E94B2089801AE018B01EC01B3
S113102060E070E080E89FE30E9492060E948B09D2
S11310309801AE010F911F91CF91DF910C942B0970
S113104097F99F6780E870E060E00895882371F461
S1131050772321F09850872B762F07C0662311F44D
S113106099270DC09051862B70E060E02AF09A9584
S1131070660F771F881FDAF7880F9695879597F97B
S113108008959F3F31F0915020F4879577956795A7
S1131090B795880F911D9695879597F908959FEFB9
S11310A080EC0895DF93CF931F930F93FF92EF92F9
S11310B0DF927B018C01689406C0DA2EEF010E9456
S11310C02B09FE01E894A5912591359145915591FF
S11310D0A6F3EF010E94AA06FE019701A801DA9483
S11310E069F7DF90EF90FF900F911F91CF91DF91FF
S11310F0089500240A94161617061806090608957A
S113110000240A94121613061406050608950C9476
S11311104F080E94DF08D8F3E894E0E0BB279F570C
S1131120F0F02AED3FE049EC06C0EE0FBB0F661F5E
S1131130771F881F28F0B23A62077307840728F0E4
S1131140B25A620B730B840BE3959A9572F780384D
S113115030F49A95BB0F661F771F881FD2F790480B
S11311600C944308092E0394000C11F4882352F0C4
S1131170BB0F40F4BF2B11F460FF04C06F5F7F4FBF
S11311808F4F9F4F0895EF93E0FF07C0A2EA2AED27
S11311903FE049EC5FEB0E94AA060E94B2080F9060
S11311A0039401FC9058ECEDF0E00C94D20957FD47
S11311B09058440F551F59F05F3F71F04795880FC1
S11311C097FB991F61F09F3F79F087950895121658
S11311D013061406551FF2CF4695F1DF08C0161604
S11311E017061806991FF1CF8695710561050894B5
S11311F008950E94DF08A0F0BEE7B91788F4BB2762
S11312009F3860F41616B11D672F782F8827985FD2
S1131210F7CF869577956795B11D93959639C8F361
S11312200895E894BB2766277727CB0197F908959B
S11312300E942B090C94B2080E94790838F00E948D
S1131240800820F0952311F00C9420080C944F088A
S113125011240C9412090E94D70870F3959FC1F3CE
S1131260950F50E0551F629FF001729FBB27F00D50
S1131270B11D639FAA27F00DB11DAA1F649F6627A5
S1131280B00DA11D661F829F2227B00DA11D621FF4
S1131290739FB00DA11D621F839FA00D611D221FAE
S11312A0749F3327A00D611D231F849F600D211D92
S11312B0822F762F6A2F11249F5750409AF0F1F015
S11312C088234AF0EE0FFF1FBB1F661F771F881F7E
S11312D091505040A9F79E3F510580F00C9420088E
S11312E00C9412095F3FE4F3983ED4F38695779506
S11312F06795B795F795E7959F5FC1F7FE2B880F24
S1131300911D9695879597F9089519F416F40C9400
S11313104F080C9441080E94DF08B8F39923C9F3DD
S1131320B6F39F57550B87FF0E94CB090024A0E614
S113133040EA900180585695979528F4805C660F92
S1131340771F881F20F026173707480730F4621BE1
S1131350730B840B202931294A2BA69517940794E3
S1131360202531254A2758F7660F771F881F20F05C
S113137026173707480730F4620B730B840B200DD4
S1131380311D411DA09581F7B901842F9158880F13
S113139096958795089591505040660F771F881F42
S11313A0D2F708959F938F937F936F93FF93EF9357
S11313B09B01AC010E941809EF91FF910E94520811
S11313C02F913F914F915F910C94180997FB072E31
S11313D016F4009407D077FD09D00E94FA0907FC9F
S11313E005D03EF4909581959F4F08957095619531
S11313F07F4F0895AA1BBB1B51E107C0AA1FBB1F47
S1131400A617B70710F0A61BB70B881F991F5A958C
S1131410A9F780959095BC01CD010895F894FFCF6C
S113142001000000164400004842303132333435A4
S113143036373839005374617274696E6720737972
S11314407374656D00506C656173652077616974B0
S11314502E2E2E0053797374656D2073746172742B
S11314602020202000636F6D706C657465642120FA
S1131470202020202000456E61626C696E67205533
S1131480492E2E2E202000456E6A6F7921203A299C
S113149020202020202020005B4845494748545DF7
S11314A02020414E474C4520002020203030202071
S11314B0202020202030302000204845494748542F
S11314C020205B414E474C455D0020484549474834
S11114D054202020414E474C4520005B000074
S9030000FC
