S01400004D61696E2050726F6772616D2E7372656393
S11300000C947D000C949A000C949A000C949A0021
S11300100C94C4040C949A000C949A000C949A00C6
S11300200C949A000C949A000C949A000C949A00E4
S11300300C949A000C949A000C949A000C949A00D4
S11300400C949A000C949A000C949A000C949A00C4
S11300500C949A000C94F9010C949A000C949A0054
S11300600C949A000C949A000C949A000C949A00A4
S11300700C949A000C949A000C949A000C949A0094
S11300800C949A000C949A000C949A000C94C40159
S11300900C949A000C949A000C949A000C949A0074
S11300A00C949A000C949A000C949A000C949A0064
S11300B00C949A00072C7AA5BA6CC590DA3B936528
S11300C0FC8BBC53F810FD3C5692834DBD879D3A82
S11300D0B63DCBC9BF5BBE73DA0FC93F05A84CCD93
S11300E0B2D44EB93836A9020C50B9918688083C6E
S11300F0A6AAAA2ABE000000803F11241FBECFEF8B
S1130100D8E0DEBFCDBF11E0A0E0B1E0E0EBF5E167
S113011002C005900D92AE3BB107D9F722E0AEEBD9
S1130120B1E001C01D92A432B207E1F70E946C0253
S11301300C94D60A0C9400008BB970987198729A3A
S113014085E08A95F1F7000072988FE891E00197B5
S1130150F1F700C0000008958BB9709A7198729AF3
S113016085E08A95F1F7000072988FE891E0019795
S1130170F1F700C0000008958FEF8AB98DB9729825
S11301808FE39FE10197F1F700C0000088E30E942C
S11301909C008CE00E949C0081E00E949C008FE304
S11301A09FE10197F1F700C0000086E00E949C00E7
S11301B00895CF93DF9300D000D0CDB7DEB790E899
S11301C0998390EC9A8394E99B8394ED9C83FE013C
S11301D0E60FF11D81509081890F0E949C008FE8E9
S11301E091E00197F1F700C000000F900F900F907D
S11301F00F90DF91CF9108950F931F93CF93FC013C
S11302008081882359F08F01C0E00E94AC00CF5F49
S1130210F801EC0FF11D80818111F7CFCF911F916F
S11302200F910895CF93DF93CDB7DEB72B970FB619
S1130230F894DEBF0FBECDBF9B014BE0EAE0F1E0D6
S1130240DE01119601900D924A95E1F76AE070E0A3
S11302500E94AE0AE1E0F0E0EC0FFD1FE60FF71F8D
S11302604081F9014083E1E0F0E0EC0FFD1FE80F6D
S1130270F91F8081F901818312822B960FB6F894BD
S1130280DEBF0FBECDBFDF91CF910895EF92FF92F5
S11302900F931F93CF93DF93CDB7DEB72B970FB692
S11302A0F894DEBF0FBECDBF8C019B018BE0EAE06A
S11302B0F1E0DE01119601900D928A95E1F7C801F3
S11302C060E177E20E94AE0AE1E0F0E0EC0FFD1F8E
S11302D0E60FF71F4081F90140830F2EF8EEEF2E51
S11302E0F3E0FF2EF02DB7010E94AE0AE1E0F0E04A
S11302F0EC0FFD1FE60FF71F8081F9018183C80110
S1130300B7010E94AE0A0F2EF4E6EF2EF12CF02D69
S1130310B7010E94AE0AE1E0F0E0EC0FFD1FE60F2A
S1130320F71F8081F9018283C801B7010E94AE0AD8
S11303300F2EFAE0EF2EF12CF02DB7010E94AE0A39
S1130340E1E0F0E0EC0FFD1FE60FF71F8081F901FB
S11303508383C801B7010E94AE0AE1E0F0E0EC0F2C
S1130360FD1FE80FF91F8081F901848315822B9604
S11303700FB6F894DEBF0FBECDBFDF91CF911F91B2
S11303800F91FF90EF9008951F920F920FB60F9266
S113039011248F939F9387EF92EC90939500809311
S11303A094008091BE019091BF0101969093BF018A
S11303B08093BE018091BE019091BF01059791F495
S11303C08FE694E9909389008093880010929500B9
S11303D0109294001092710081E090E09093F301E8
S11303E08093F2019F918F910F900FBE0F901F90F9
S11303F018951F920F920FB60F9211248F939F930B
S1130400EF93FF9380917800909179009093F1019C
S11304108093F001EAE7F0E0808180648083FF91BB
S1130420EF919F918F910F900FBE0F901F90189591
S1130430CF93DF933B98439A83E480937C008FE8C7
S113044080937A0010927B0073986B9887B1897EB1
S113045087B9219A8DEF85B982EC809380008AE177
S1130460809381008FE39CE99093870080938600BA
S11304708FE99CE890938900809388001092900003
S113048085E080939100C1E7D0E0188287EF92EC79
S1130490909395008093940078940E94BC0061E04E
S11304A081E00E94D90085E191E00E94FC0062E0B5
S11304B081E00E94D90085E291E00E94FC0081E085
S11304C08883739A6B9A8091F2019091F30101975A
S11304D0D1F7DF91CF910895CF93DF9300D000D06F
S11304E000D0CDB7DEB7E0EDF1E080E38083818317
S11304F09EE292838383E0EEF1E0808381839283A2
S113050083830E941802EAE7F0E08081806480839C
S113051061E081E00E94D90084E391E00E94FC0044
S113052062E081E00E94D90085E491E00E94FC0031
S11305302FEF33ED40E3215030404040E1F700C05D
S1130540000061E081E00E94D90086E591E00E940C
S1130550FC0062E081E00E94D90087E691E00E94FD
S1130560FC005FEF87EA91E6515080409040E1F74C
S113057000C00000E8E6F0E0808182608083ECE661
S1130580F0E080818661808361E081E00E94D9008F
S113059088E791E00E94FC0062E081E00E94D900BB
S11305A089E891E00E94FC0062E081E00E94D900A9
S11305B08091F0019091F1010F2EF4ED2F2E312C4A
S11305C0F02D08E810E0E091F001F091F101FA83D8
S11305D0E9838091F4019091F5010197E9F4609128
S11305E0FE017091FF01072E000C880B990B0E94ED
S11305F0760824EA30E74DE750E40E94E00920E061
S113060030E040E651E40E945B070E943E081B0173
S11306101092F5011092F401910149815A81241B31
S1130620350B3E832D8380910E0290910F02820F31
S1130630931F90930F0280930E0280911002909169
S11306401102281B390B30930D0220930C02809069
S1130650060190900701A0900801B09009018091D3
S11306600E0290910F029A83898340900402509065
S113067005026090060270900702E0910C02F0916E
S11306800D02FC83EB83C0900201D0900301E09043
S11306900401F09005012D813E81B901330F880BCF
S11306A0990B0E947608A50194010E94E0094B0170
S11306B05C0149815A81BA01550F880B990B0E943C
S11306C07608A30192010E94E0099B01AC01C501D7
S11306D0B4010E945B074B015C01EB81FC81BF010B
S11306E0FF0F880B990B0E947608A70196010E94C0
S11306F0E0099B01AC01C501B4010E945B070E94A3
S11307003E0870930B0260930A028D819E819923A7
S11307101CF491958195910964E172E00E9446016F
S113072061E081E00E94D90084E192E00E94FC0033
S113073085E791E00E94FC008091F0019091F10125
S113074060EC71E00E94460167E081E00E94D900FC
S113075080EC91E00E94FC0080910A0290910B02CF
S11307609195819591099093130280931202F80157
S1130770808191812091120230911302820F931F84
S113078081379449C8F4F801808191812091120243
S113079030911302820F931F803A9C4868F0F8014D
S11307A08081918120911202309113020197820F6E
S11307B0931F9183808351C0F8018081918120919E
S11307C0120230911302820F931F8137944908F16A
S11307D0F801808191812091120230911302805797
S11307E09449820F931F9093090280930802808199
S11307F0918120911202309113024091080250918C
S11308000902241B350B0197820F931F9183808368
S113081024C0F80180819181209112023091130249
S113082040EA5CE8481B590BCA01821B930B909366
S11308300902809308022081318140911202509173
S113084013028091080290910902840F951F2F5F73
S11308503F4F820F931F918380838D819E8190935C
S1130860110280931002AFCEEF92FF920F931F9369
S1130870CF93DF93EC018B017A0161E081E00E9468
S1130880D900EA94EF2829F488E791E00E94FC005B
S113089004C08AE991E00E94FC0062E081E00E94C9
S11308A0D90086E791E00E94FC00C8010E94FC0088
S11308B062E086E00E94D90086E791E00E94FC0095
S11308C062E08AE00E94D90086E791E00E94FC0081
S11308D0CE010E94FC0062E08FE00E94D90086E70E
S11308E091E00E94FC00DF91CF911F910F91FF9046
S11308F0EF900895CF93DF93EC0161E081E00E94D3
S1130900D9008BEA91E00E94FC0062E081E00E9441
S1130910D9008CEB91E00E94FC0062E082E00E942E
S1130920D900CE010E94FC0062E086E00E94D9005A
S113093089EA91E00E94FC00DF91CF910895CF9362
S1130940DF93EC0161E081E00E94D9008BEA91E041
S11309500E94FC0062E08AE00E94D9008CEB91E0E6
S11309600E94FC0062E08BE00E94D900CE010E944C
S1130970FC0062E08FE00E94D90089EA91E00E94C5
S1130980FC00DF91CF9108951F920F920FB60F9242
S11309901124CF92DF92EF92FF922F933F934F93C4
S11309A05F936F937F938F939F93AF93BF93CF93F3
S11309B0DF93EF93FF938FE19EE40197F1F700C07B
S11309C0000086B1833709F06BC0809102029091D8
S11309D0030282309105A9F083309105D1F1892B6E
S11309E009F05EC040E050E060EE71E080ED91E01F
S11309F00E94340481E090E0909303028093020209
S1130A004FC0209100023091010280910001909129
S1130A100101820F931F40970CF042C02091000205
S1130A20309101028091000190910101820F931F86
S1130A309093010280930002809100029091010240
S1130A4060EE71E00E94120180EE91E00E947A044F
S1130A5027C02091FE013091FF0180910001909107
S1130A600101820F931F8B359105D4F42091FE016F
S1130A703091FF018091000190910101820F931F39
S1130A809093FF018093FE018091FE019091FF01FC
S1130A9060ED71E00E94120180ED91E00E949F04DC
S1130AA086B1853709F066C08091020290910302F5
S1130AB08230910599F083309105B9F1019709F0DD
S1130AC059C041E050E060EE71E080ED91E00E9499
S1130AD0340410920302109202024CC0809100026E
S1130AE0909101022091000130910101821B930B2E
S1130AF00AF440C08091000290910102209100010B
S1130B0030910101821B930B9093010280930002A8
S1130B10809100029091010260EE71E00E94120146
S1130B2080EE91E00E947A0425C08091FE019091AC
S1130B30FF012091000130910101821B930BD2F03F
S1130B408091FE019091FF012091000130910101FB
S1130B50821B930B9093FF018093FE018091FE0111
S1130B609091FF0160ED71E00E94120180ED91E02F
S1130B700E949F0486B1873609F071C180910202F8
S1130B809091030281309105F1F01CF4892B41F01E
S1130B9066C18230910551F1039709F4C2C05FC167
S1130BA0809100029091010260EE71E00E941201B6
S1130BB080EE91E00E947A0482E090E09093030238
S1130BC0809302024CC18091FE019091FF0160ED7F
S1130BD071E00E94120180ED91E00E949F0483E085
S1130BE090E0909303028093020239C181E090E087
S1130BF09093F5018093F4016091000270910102D9
S1130C00072E000C880B990B0E9476086093FA015A
S1130C107093FB018093FC019093FD016091FA01B4
S1130C207091FB018091FC019091FD012091FA01EA
S1130C303091FB014091FC015091FD010E94E009BB
S1130C406093FA017093FB018093FC019093FD0182
S1130C50C090FA01D090FB01E090FC01F090FD01FE
S1130C60A701960160E070E081E693E40E945A07D0
S1130C700E94530A20E030E040E751E40E94CC0790
S1130C806093FA017093FB018093FC019093FD0142
S1130C906091FA017091FB018091FC019091FD013A
S1130CA00E94490720EE3EE245E652E40E94E00934
S1130CB06093FA017093FB018093FC019093FD0112
S1130CC06091FA017091FB018091FC019091FD010A
S1130CD00E94B1080E943E087093FF016093FE01D8
S1130CE080910002909101020F9731F48AE590E01F
S1130CF09093FF018093FE018091FE019091FF018A
S1130D0060ED71E00E94120141E050E060EE71E09C
S1130D1080ED91E00E9434041092030210920202CA
S1130D209EC0C1E0D0E0D093F501C093F40160917E
S1130D30FE017091FF01072E000C880B990B0E9495
S1130D4076086093F6017093F7018093F80190930D
S1130D50F9016091F6017091F7018091F801909189
S1130D60F90125E33AEF4EE85CE30E94E009609361
S1130D70F6017093F7018093F8019093F901609163
S1130D80F6017091F7018091F8019091F9010E94A8
S1130D90C70720E030E040E751E40E94E009609397
S1130DA0F6017093F7018093F8019093F901609133
S1130DB0F6017091F7018091F8019091F901209169
S1130DC0F6013091F7014091F8015091F9010E9428
S1130DD0E0096093F6017093F7018093F801909312
S1130DE0F901C090F601D090F701E090F801F0907D
S1130DF0F901A701960160E070E081E693E40E94A6
S1130E005A070E94530A6093F6017093F701809386
S1130E10F8019093F9016091F6017091F7018091C6
S1130E20F8019091F9010E94B1080E943E08709364
S1130E30010260930002809100029091010260EE31
S1130E4071E00E94120140E050E060EE71E080ED3C
S1130E5091E00E943404D0930302C093020286B14D
S1130E608737E9F7FF91EF91DF91CF91BF91AF9170
S1130E709F918F917F916F915F914F913F912F91AE
S1130E80FF90EF90DF90CF900F900FBE0F901F90C8
S1130E9018959F939F770E94C8080F90002042F4F2
S1130EA09058A2EA2AED3FE049E450E40E94720718
S1130EB00C947A095058BB27AA270E9472070C94F5
S1130EC07A090E94410938F00E94480920F039F457
S1130ED09F3F19F426F40C9417090EF4E095E7FBF0
S1130EE00C94E808E92F0E949F0958F3BA17620787
S1130EF073078407950720F079F4A6F50C94D909B3
S1130F000EF4E0950B2EBA2FA02D0B01B901900120
S1130F100C01CA01A0011124FF27591B99F0593F64
S1130F2050F4503E68F11A16F040A22F232F342FAC
S1130F304427585FF3CF469537952795A795F040FA
S1130F405395C9F77EF41F16BA0B620B730B840B0F
S1130F50BAF09150A1F0FF0FBB1F661F771F881FC7
S1130F60C2F70EC0BA0F621F731F841F48F487951F
S1130F7077956795B795F7959E3F08F0B0CF939511
S1130F80880F08F09927EE0F9795879508950E948A
S1130F905109E3950C948B090E94E0070C947A099B
S1130FA00E94480958F00E94410940F029F45F3F2B
S1130FB029F00C94E80851110C94DA090C941709DF
S1130FC00E949F0968F39923B1F3552391F3951B6C
S1130FD0550BBB27AA2762177307840738F09F5F56
S1130FE05F4F220F331F441FAA1FA9F335D00E2EC3
S1130FF03AF0E0E832D091505040E695001CCAF730
S11310002BD0FE2F29D0660F771F881FBB1F2617F2
S113101037074807AB07B0E809F0BB0B802DBF01C9
S1131020FF2793585F4F3AF09E3F510578F00C9498
S1131030E8080C94DA095F3FE4F3983ED4F386950C
S113104077956795B795F7959F5FC9F7880F911DB9
S11310509695879597F90895E1E0660F771F881FA5
S1131060BB1F621773078407BA0720F0621B730B58
S1131070840BBA0BEE1F88F7E09508950E9445088B
S11310806894B1110C94DA0908950E94A70988F0B4
S11310909F5798F0B92F9927B751B0F0E1F0660F38
S11310A0771F881F991F1AF0BA95C9F714C0B13079
S11310B091F00E94D909B1E008950C94D909672FE1
S11310C0782F8827B85F39F0B93FCCF386957795A8
S11310D06795B395D9F73EF4909580957095619591
S11310E07F4F8F4F9F4F0895E89409C097FB3EF4BC
S11310F090958095709561957F4F8F4F9F4F992361
S1131100A9F0F92F96E9BB279395F69587957795DE
S11311106795B795F111F8CFFAF4BB0F11F460FF9E
S11311201BC06F5F7F4F8F4F9F4F16C0882311F0F6
S113113096E911C0772321F09EE8872F762F05C00A
S1131140662371F096E8862F70E060E02AF09A95A5
S1131150660F771F881FDAF7880F9695879597F99A
S113116008950E94C10990F09F3748F4911116F038
S11311700C94DA0960E070E080E89FEB089526F4AF
S11311801B16611D711D811D0C94EE080C94090938
S1131190DF93CF931F930F938B01EC01E4EBF0E00B
S11311A00E941A090E947A099801AE018B01EC0190
S11311B060E070E080E89FE30E945A070E94530AAF
S11311C09801AE010F911F91CF91DF910C94F30917
S11311D097F99F6780E870E060E00895882371F4D0
S11311E0772321F09850872B762F07C0662311F4BC
S11311F099270DC09051862B70E060E02AF09A95F3
S1131200660F771F881FDAF7880F9695879597F9E9
S113121008959F3F31F0915020F487957795679515
S1131220B795880F911D9695879597F908959FEF27
S113123080EC0895DF93CF931F930F93FF92EF9267
S1131240DF927B018C01689406C0DA2EEF010E94C4
S1131250F309FE01E894A5912591359145915591A5
S1131260A6F3EF010E947207FE019701A801DA9428
S113127069F7DF90EF90FF900F911F91CF91DF916D
S1131280089500240A9416161706180609060895E8
S113129000240A94121613061406050608950C94E5
S11312A017090E94A709D8F3E894E0E0BB279F57E9
S11312B0F0F02AED3FE049EC06C0EE0FBB0F661FCD
S11312C0771F881F28F0B23A62077307840728F053
S11312D0B25A620B730B840BE3959A9572F78038BC
S11312E030F49A95BB0F661F771F881FD2F790487A
S11312F00C940B09092E0394000C11F4882352F06A
S1131300BB0F40F4BF2B11F460FF04C06F5F7F4F2D
S11313108F4F9F4F0895EF93E0FF07C0A2EA2AED95
S11313203FE049EC5FEB0E9472070E947A090F903C
S1131330039401FC9058ECEDF0E00C949A0A57FDEC
S11313409058440F551F59F05F3F71F04795880F2F
S113135097FB991F61F09F3F79F0879508951216C6
S113136013061406551FF2CF4695F1DF08C0161672
S113137017061806991FF1CF869571056105089423
S113138008950E94A709A0F0BEE7B91788F4BB2707
S11313909F3860F41616B11D672F782F8827985F41
S11313A0F7CF869577956795B11D93959639C8F3D0
S11313B00895E894BB2766277727CB0197F908950A
S11313C00E94F3090C947A090E94410938F00E94A2
S11313D0480920F0952311F00C94E8080C9417099F
S11313E011240C94DA090E949F0970F3959FC1F3AC
S11313F0950F50E0551F629FF001729FBB27F00DBF
S1131400B11D639FAA27F00DB11DAA1F649F662713
S1131410B00DA11D661F829F2227B00DA11D621F62
S1131420739FB00DA11D621F839FA00D611D221F1C
S1131430749F3327A00D611D231F849F600D211D00
S1131440822F762F6A2F11249F5750409AF0F1F083
S113145088234AF0EE0FFF1FBB1F661F771F881FEC
S113146091505040A9F79E3F510580F00C94E80834
S11314700C94DA095F3FE4F3983ED4F386957795AC
S11314806795B795F795E7959F5FC1F7FE2B880F92
S1131490911D9695879597F9089519F416F40C946F
S11314A017090C9409090E94A709B8F39923C9F3F1
S11314B0B6F39F57550B87FF0E94930A0024A0E6BA
S11314C040EA900180585695979528F4805C660F01
S11314D0771F881F20F026173707480730F4621B50
S11314E0730B840B202931294A2BA6951794079452
S11314F0202531254A2758F7660F771F881F20F0CB
S113150026173707480730F4620B730B840B200D42
S1131510311D411DA09581F7B901842F9158880F81
S113152096958795089591505040660F771F881FB0
S1131530D2F708959F938F937F936F93FF93EF93C5
S11315409B01AC010E94E009EF91FF910E941A09EE
S11315502F913F914F915F910C94E00997FB072ED7
S113156016F4009407D077FD09D00E94C20A07FC44
S113157005D03EF4909581959F4F0895709561959F
S11315807F4F0895AA1BBB1B51E107C0AA1FBB1FB5
S1131590A617B70710F0A61BB70B881F991F5A95FB
S11315A0A9F780959095BC01CD010895F894FFCFDB
S11315B0010000007A430080BB44303132333435BB
S11315C036373839005374617274696E67207379E1
S11315D07374656D00506C6561736520776169741F
S11315E02E2E2E0053797374656D2073746172749A
S11315F02020202000636F6D706C65746564212069
S1131600202020202000456E61626C696E672055A1
S1131610492E2E2E202000456E6A6F7921203A290A
S113162020202020202020005B4845494748545D65
S11316302020414E474C4520002030302E302020C1
S11316402020202030302E302000204845494748B3
S11316505420205B414E474C455D00204845494796
S11116604854202020414E474C4520005B009A
S9030000FC
