S01400004D61696E2050726F6772616D2E7372656393
S11300000C947D000C949A000C949A000C949A0021
S11300100C94E4020C949A000C949A000C949A00A8
S11300200C949A000C949A000C949A000C949A00E4
S11300300C949A000C949A000C949A000C949A00D4
S11300400C949A000C949A000C949A000C949A00C4
S11300500C949A000C947B010C949A000C949A00D2
S11300600C949A000C949A000C949A000C949A00A4
S11300700C949A000C949A000C949A000C949A0094
S11300800C949A000C949A000C949A000C944601D7
S11300900C949A000C949A000C949A000C949A0074
S11300A00C949A000C949A000C949A000C949A0064
S11300B00C949A00072C7AA5BA6CC590DA3B936528
S11300C0FC8BBC53F810FD3C5692834DBD879D3A82
S11300D0B63DCBC9BF5BBE73DA0FC93F05A84CCD93
S11300E0B2D44EB93836A9020C50B9918688083C6E
S11300F0A6AAAA2ABE000000803F11241FBECFEF8B
S1130100D8E0DEBFCDBF11E0A0E0B1E0E0EFF1E167
S113011002C005900D92A63BB107D9F721E0A6EBEA
S1130120B1E001C01D92AC3EB207E1F70E94EE01BE
S11301300C94F6080C9400008BB970987198729A1C
S113014085E08A95F1F7000072988FE891E00197B5
S1130150F1F700C0000008958BB9709A7198729AF3
S113016085E08A95F1F7000072988FE891E0019795
S1130170F1F700C0000008958FEF8AB98DB9729825
S11301808FE39FE10197F1F700C0000088E30E942C
S11301909C008CE00E949C0081E00E949C008FE304
S11301A09FE10197F1F700C0000086E00E949C00E7
S11301B00895CF93DF9300D000D0CDB7DEB790E899
S11301C0998390EC9A8394E99B8394ED9C83FE013C
S11301D0E60FF11D81509081890F0E949C008FE8E9
S11301E091E00197F1F700C000000F900F900F907D
S11301F00F90DF91CF9108950F931F93CF93FC013C
S11302008081882359F08F01C0E00E94AC00CF5F49
S1130210F801EC0FF11D80818111F7CFCF911F916F
S11302200F910895CF93DF93CDB7DEB72B970FB619
S1130230F894DEBF0FBECDBF9B014BE0E2E0F1E0DE
S1130240DE01119601900D924A95E1F76AE070E0A3
S11302500E94CE08E1E0F0E0EC0FFD1FE60FF71F6F
S11302604081F9014083E1E0F0E0EC0FFD1FE80F6D
S1130270F91F8081F901818312822B960FB6F894BD
S1130280DEBF0FBECDBFDF91CF9108951F920F92B5
S11302900FB60F9211248F939F9387EF92EC909354
S11302A09500809394008091B6019091B7010196D6
S11302B09093B7018093B6018091B6019091B701F4
S11302C0059791F48FE694E99093890080938800D0
S11302D010929500109294001092710081E090E0C9
S11302E09093DB018093DA019F918F910F900FBE61
S11302F00F901F9018951F920F920FB60F92112412
S11303008F939F93EF93FF9380917800909179005E
S11303109093D9018093D801EAE7F0E0808180646A
S11303208083FF91EF919F918F910F900FBE0F905B
S11303301F901895CF93DF933B98439A83E480935F
S11303407C008FE880937A0010927B0073986B98FE
S113035087B1897E87B9219A8DEF85B982EC809324
S113036080008AE1809381008FE39CE99093870069
S1130370809386008FE99CE890938900809388009D
S11303801092900085E080939100C1E7D0E018823C
S113039087EF92EC909395008093940078940E9458
S11303A0BC0061E081E00E94D9008DE091E00E94F0
S11303B0FC0062E081E00E94D9008DE191E00E949E
S11303C0FC0081E08883739A6B9A8091DA019091A2
S11303D0DB010197D1F7DF91CF910895E8EBF1E0CC
S11303E080E3808381839EE292838383E8ECF1E05F
S11303F080838183928383830E949A01EAE7F0E0F9
S113040080818064808361E081E00E94D9008CE275
S113041091E00E94FC0062E081E00E94D9008DE33B
S113042091E00E94FC002FEF83ED90E32150804087
S11304309040E1F700C0000061E081E00E94D90033
S11304408EE491E00E94FC0062E081E00E94D90009
S11304508FE591E00E94FC002FEF87EA91E621509E
S113046080409040E1F700C00000E8E6F0E08081C1
S113047082608083ECE6F0E080818661808361E0C5
S113048081E00E94D90080E791E00E94FC0062E0D4
S113049081E00E94D90081E891E00E94FC0062E0C2
S11304A081E00E94D900FFCFEF92FF920F931F9338
S11304B0CF93DF93EC018B017A0161E081E00E942C
S11304C0D900EA94EF2829F480E791E00E94FC0027
S11304D004C082E991E00E94FC0062E081E00E9495
S11304E0D9008EE691E00E94FC00C8010E94FC0045
S11304F062E086E00E94D9008EE691E00E94FC0052
S113050062E08AE00E94D9008EE691E00E94FC003D
S1130510CE010E94FC0062E08FE00E94D9008EE6CA
S113052091E00E94FC00DF91CF911F910F91FF9009
S1130530EF900895CF93DF93EC0161E081E00E9496
S1130540D90083EA91E00E94FC0062E081E00E940D
S1130550D90084EB91E00E94FC0062E082E00E94FA
S1130560D900CE010E94FC0062E086E00E94D9001E
S113057081EA91E00E94FC00DF91CF910895CF932E
S1130580DF93EC0161E081E00E94D90083EA91E00D
S11305900E94FC0062E08AE00E94D90084EB91E0B2
S11305A00E94FC0062E08BE00E94D900CE010E9410
S11305B0FC0062E08FE00E94D90081EA91E00E9491
S11305C0FC00DF91CF9108951F920F920FB60F9206
S11305D01124CF92DF92EF92FF922F933F934F9388
S11305E05F936F937F938F939F93AF93BF93CF93B7
S11305F0DF93EF93FF938FE19EE40197F1F700C03F
S1130600000086B1833709F06BC08091EA019091B4
S1130610EB0182309105A9F083309105D1F1892B4A
S113062009F05EC040E050E068EC71E088EB91E0D6
S11306300E94540281E090E09093EB018093EA01E0
S11306404FC02091E8013091E9018091000190911F
S11306500101820F931F40970CF042C02091E801E2
S11306603091E9018091000190910101820F931F63
S11306709093E9018093E8018091E8019091E90168
S113068068EC71E00E94120188EC91E00E949A02E9
S113069027C02091E6013091E701809100019091FB
S11306A00101820F931F8B359105D4F42091E6014B
S11306B03091E7018091000190910101820F931F15
S11306C09093E7018093E6018091E6019091E70120
S11306D068EB71E00E94120188EB91E00E94BF0276
S11306E086B1853709F066C08091EA019091EB01EB
S11306F08230910599F083309105B9F1019709F0A1
S113070059C041E050E068EC71E088EB91E00E9450
S113071054021092EB011092EA014CC08091E8015E
S11307209091E9012091000130910101821B930B0A
S11307300AF440C08091E8019091E9012091000100
S113074030910101821B930B9093E9018093E8019E
S11307508091E8019091E90168EC71E00E94120136
S113076088EC91E00E949A0225C08091E601909164
S1130770E7012091000130910101821B930BD2F01B
S11307808091E6019091E7012091000130910101EF
S1130790821B930B9093E7018093E6018091E6011D
S11307A09091E70168EB71E00E94120188EB91E0FF
S11307B00E94BF0286B1873609F071C18091EA01B7
S11307C09091EB0181309105F1F01CF4892B41F0FB
S11307D066C18230910551F1039709F4C2C05FC12B
S11307E08091E8019091E90168EC71E00E941201A6
S11307F088EC91E00E949A0282E090E09093EB01F1
S11308008093EA014CC18091E6019091E70168EB85
S113081071E00E94120188EB91E00E94BF0283E024
S113082090E09093EB018093EA0139C181E090E07C
S11308309093DD018093DC016091E8017091E901FE
S1130840072E000C880B990B0E9496066093E20118
S11308507093E3018093E4019093E5016091E201D8
S11308607091E3018091E4019091E5012091E2010E
S11308703091E3014091E4015091E5010E940008A8
S11308806093E2017093E3018093E4019093E501A6
S1130890C090E201D090E301E090E401F090E50122
S11308A0A701960160E070E081E693E40E947A0576
S11308B00E94730820E030E040E751E40E94EC0518
S11308C06093E2017093E3018093E4019093E50166
S11308D06091E2017091E3018091E4019091E5015E
S11308E00E94690520EE3EE245E652E40E940008BB
S11308F06093E2017093E3018093E4019093E50136
S11309006091E2017091E3018091E4019091E5012D
S11309100E94D1060E945E067093E7016093E6018F
S11309208091E8019091E9010F9731F48AE590E014
S11309309093E7018093E6018091E6019091E701AD
S113094068EB71E00E94120141E050E068EC71E054
S113095088EB91E00E9454021092EB011092EA019C
S11309609EC0C1E0D0E0D093DD01C093DC01609172
S1130970E6017091E701072E000C880B990B0E9489
S113098096066093DE017093DF018093E0019093FB
S1130990E1016091DE017091DF018091E0019091AD
S11309A0E10125E33AEF4EE85CE30E94000860931E
S11309B0DE017093DF018093E0019093E101609187
S11309C0DE017091DF018091E0019091E1010E94CC
S11309D0E70520E030E040E751E40E94000860931E
S11309E0DE017093DF018093E0019093E101609157
S11309F0DE017091DF018091E0019091E10120918D
S1130A00DE013091DF014091E0015091E1010E944B
S1130A1000086093DE017093DF018093E0019093FE
S1130A20E101C090DE01D090DF01E090E001F090A0
S1130A30E101A701960160E070E081E693E40E9481
S1130A407A050E9473086093DE017093DF0180933E
S1130A50E0019093E1016091DE017091DF018091EA
S1130A60E0019091E1010E94D1060E945E0670931C
S1130A70E9016093E8018091E8019091E90168EC53
S1130A8071E00E94120140E050E068EC71E088EBF4
S1130A9091E00E945402D093EB01C093EA0186B125
S1130AA08737E9F7FF91EF91DF91CF91BF91AF9134
S1130AB09F918F917F916F915F914F913F912F9172
S1130AC0FF90EF90DF90CF900F900FBE0F901F908C
S1130AD018959F939F770E94E8060F90002042F498
S1130AE09058A2EA2AED3FE049E450E40E949205BE
S1130AF00C949A075058BB27AA270E9492050C947D
S1130B009A070E94610738F00E94680720F039F4C0
S1130B109F3F19F426F40C9437070EF4E095E7FB95
S1130B200C940807E92F0E94BF0758F3BA1762070D
S1130B3073078407950720F079F4A6F50C94F90758
S1130B400EF4E0950B2EBA2FA02D0B01B9019001E4
S1130B500C01CA01A0011124FF27591B99F0593F28
S1130B6050F4503E68F11A16F040A22F232F342F70
S1130B704427585FF3CF469537952795A795F040BE
S1130B805395C9F77EF41F16BA0B620B730B840BD3
S1130B90BAF09150A1F0FF0FBB1F661F771F881F8B
S1130BA0C2F70EC0BA0F621F731F841F48F48795E3
S1130BB077956795B795F7959E3F08F0B0CF9395D5
S1130BC0880F08F09927EE0F9795879508950E944E
S1130BD07107E3950C94AB070E9400060C949A07E6
S1130BE00E94680758F00E94610740F029F45F3FB3
S1130BF029F00C94080751110C94FA070C94370748
S1130C000E94BF0768F39923B1F3552391F3951B11
S1130C10550BBB27AA2762177307840738F09F5F19
S1130C205F4F220F331F441FAA1FA9F335D00E2E86
S1130C303AF0E0E832D091505040E695001CCAF7F3
S1130C402BD0FE2F29D0660F771F881FBB1F2617B6
S1130C5037074807AB07B0E809F0BB0B802DBF018D
S1130C60FF2793585F4F3AF09E3F510578F00C945C
S1130C7008070C94FA075F3FE4F3983ED4F3869593
S1130C8077956795B795F7959F5FC9F7880F911D7D
S1130C909695879597F90895E1E0660F771F881F69
S1130CA0BB1F621773078407BA0720F0621B730B1C
S1130CB0840BBA0BEE1F88F7E09508950E94650631
S1130CC06894B1110C94FA0708950E94C70788F03C
S1130CD09F5798F0B92F9927B751B0F0E1F0660FFC
S1130CE0771F881F991F1AF0BA95C9F714C0B1303D
S1130CF091F00E94F907B1E008950C94F907672F69
S1130D00782F8827B85F39F0B93FCCF3869577956B
S1130D106795B395D9F73EF4909580957095619554
S1130D207F4F8F4F9F4F0895E89409C097FB3EF47F
S1130D3090958095709561957F4F8F4F9F4F992324
S1130D40A9F0F92F96E9BB279395F69587957795A2
S1130D506795B795F111F8CFFAF4BB0F11F460FF62
S1130D601BC06F5F7F4F8F4F9F4F16C0882311F0BA
S1130D7096E911C0772321F09EE8872F762F05C0CE
S1130D80662371F096E8862F70E060E02AF09A9569
S1130D90660F771F881FDAF7880F9695879597F95E
S1130DA008950E94E10790F09F3748F4911116F0DE
S1130DB00C94FA0760E070E080E89FEB089526F455
S1130DC01B16611D711D811D0C940E070C942907BF
S1130DD0DF93CF931F930F938B01EC01E4EBF0E0CF
S1130DE00E943A070E949A079801AE018B01EC0118
S1130DF060E070E080E89FE30E947A050E94730837
S1130E009801AE010F911F91CF91DF910C941308BB
S1130E1097F99F6780E870E060E00895882371F493
S1130E20772321F09850872B762F07C0662311F47F
S1130E3099270DC09051862B70E060E02AF09A95B6
S1130E40660F771F881FDAF7880F9695879597F9AD
S1130E5008959F3F31F0915020F4879577956795D9
S1130E60B795880F911D9695879597F908959FEFEB
S1130E7080EC0895DF93CF931F930F93FF92EF922B
S1130E80DF927B018C01689406C0DA2EEF010E9488
S1130E901308FE01E894A59125913591459155914A
S1130EA0A6F3EF010E949205FE019701A801DA94CE
S1130EB069F7DF90EF90FF900F911F91CF91DF9131
S1130EC0089500240A9416161706180609060895AC
S1130ED000240A94121613061406050608950C94A9
S1130EE037070E94C707D8F3E894E0E0BB279F5771
S1130EF0F0F02AED3FE049EC06C0EE0FBB0F661F91
S1130F00771F881F28F0B23A62077307840728F016
S1130F10B25A620B730B840BE3959A9572F780387F
S1130F2030F49A95BB0F661F771F881FD2F790483D
S1130F300C942B07092E0394000C11F4882352F00F
S1130F40BB0F40F4BF2B11F460FF04C06F5F7F4FF1
S1130F508F4F9F4F0895EF93E0FF07C0A2EA2AED59
S1130F603FE049EC5FEB0E9492050E949A070F90C4
S1130F70039401FC9058ECEDF0E00C94BA0857FD92
S1130F809058440F551F59F05F3F71F04795880FF3
S1130F9097FB991F61F09F3F79F08795089512168A
S1130FA013061406551FF2CF4695F1DF08C0161636
S1130FB017061806991FF1CF8695710561050894E7
S1130FC008950E94C707A0F0BEE7B91788F4BB27AD
S1130FD09F3860F41616B11D672F782F8827985F05
S1130FE0F7CF869577956795B11D93959639C8F394
S1130FF00895E894BB2766277727CB0197F90895CE
S11310000E9413080C949A070E94610738F00E940A
S1131010680720F0952311F00C9408070C94370707
S113102011240C94FA070E94BF0770F3959FC1F333
S1131030950F50E0551F629FF001729FBB27F00D82
S1131040B11D639FAA27F00DB11DAA1F649F6627D7
S1131050B00DA11D661F829F2227B00DA11D621F26
S1131060739FB00DA11D621F839FA00D611D221FE0
S1131070749F3327A00D611D231F849F600D211DC4
S1131080822F762F6A2F11249F5750409AF0F1F047
S113109088234AF0EE0FFF1FBB1F661F771F881FB0
S11310A091505040A9F79E3F510580F00C940807D9
S11310B00C94FA075F3FE4F3983ED4F38695779552
S11310C06795B795F795E7959F5FC1F7FE2B880F56
S11310D0911D9695879597F9089519F416F40C9433
S11310E037070C9429070E94C707B8F39923C9F35B
S11310F0B6F39F57550B87FF0E94B3080024A0E660
S113110040EA900180585695979528F4805C660FC4
S1131110771F881F20F026173707480730F4621B13
S1131120730B840B202931294A2BA6951794079415
S1131130202531254A2758F7660F771F881F20F08E
S113114026173707480730F4620B730B840B200D06
S1131150311D411DA09581F7B901842F9158880F45
S113116096958795089591505040660F771F881F74
S1131170D2F708959F938F937F936F93FF93EF9389
S11311809B01AC010E940008EF91FF910E943A0775
S11311902F913F914F915F910C94000897FB072E7C
S11311A016F4009407D077FD09D00E94E20807FCEA
S11311B005D03EF4909581959F4F08957095619563
S11311C07F4F0895AA1BBB1B51E107C0AA1FBB1F79
S11311D0A617B70710F0A61BB70B881F991F5A95BF
S11311E0A9F780959095BC01CD010895F894FFCF9F
S11311F001003031323334353637383900537461B5
S11312007274696E672073797374656D00506C65D0
S113121061736520776169742E2E2E00537973747F
S1131220656D2073746172742020202000636F6DDB
S1131230706C657465642120202020202000456E98
S113124061626C696E672055492E2E2E2020004560
S11312506E6A6F7921203A29202020202020200046
S11312605B4845494748545D2020414E474C452042
S1131270002030302E3020202020202030302E300E
S113128020002048454947485420205B414E474CA4
S1131290455D0020484549474854202020414E4799
S10912A04C4520005B0038
S9030000FC
