:100000000C949B000C94B8000C94B8000C94B800AD
:100010000C94AC020C94B8000C94B8000C94B8008A
:100020000C94B8000C94B8000C94B8000C94B80070
:100030000C94B8000C94B8000C94B8000C94B80060
:100040000C94B8000C94B8000C94B8000C94B80050
:100050000C94B8000C94B8000C94B8000C94B80040
:100060000C94B8000C94B8000C94B8000C94B80030
:100070000C94B8000C94B8000C94B8000C94B80020
:100080000C94B8000C94B8000C94B8000C94B80010
:100090000C94B8000C94B8000C94B8000C94B80000
:1000A0000C94B8000C94B8000C94B8000C94B800F0
:1000B0000C94B80007634236B79BD8A71A39685624
:1000C00018AEBAAB558C1D3CB7CC5763BD6DEDFD7A
:1000D000753EF6177231BF000000803F0800000037
:1000E000BE922449123EABAAAA2ABECDCCCC4C3E2D
:1000F00000000080BEABAAAAAA3E00000000BF001C
:100100000000803F0000000000084178D3BB438717
:10011000D1133D190E3CC3BD4282AD2B3E68EC822B
:1001200076BED98FE1A93E4C80EFFFBE01C4FF7FB0
:100130003F000000000011241FBECFEFD8E0DEBF5B
:10014000CDBF11E0A0E0B1E0E4E9F0E102C005902C
:100150000D92A434B107D9F721E0A4E4B1E001C0C5
:100160001D92A037B207E1F70E94F5010C944808F0
:100170000C9400008BB970987198729A85E08A95FA
:10018000F1F7000072988FE891E00197F1F700C055
:10019000000008958BB9709A7198729A85E08A95DB
:1001A000F1F7000072988FE891E00197F1F700C035
:1001B000000008958FEF8AB98DB972988FE39FE19F
:1001C0000197F1F700C0000088E30E94BA008EE0BA
:1001D0000E94BA008CE00E94BA0081E00E94BA003E
:1001E0008FE39FE10197F1F700C0000086E00E94D5
:1001F000BA000895CF93DF9300D000D0CDB7DEB71B
:1002000090E8998390EC9A8394E99B8394ED9C8386
:10021000FE01E60FF11D81509081890F0E94BA0006
:100220008FE891E00197F1F700C000000F900F9068
:100230000F900F90DF91CF9108950F931F93CF935D
:10024000FC018081882359F08F01C0E00E94CA0020
:10025000CF5FF801EC0FF11D80818111F7CFCF91B5
:100260001F910F9108959B01215031091216130619
:1002700084F4FC01E60FF71FDC0180E090E04C9174
:1002800052915D9340830196215031098217930763
:10029000B4F30895CF92DF92EF92FF920F931F93E2
:1002A000CF93DF936B018A01009799F0EB01E0E0B7
:1002B000F0E00F2EFAE0EF2EF12CF02D3196B70181
:1002C0000E942008805D8993862F972F0097B1F7B1
:1002D00002C0E0E0F0E0E017F1075CF4EC0DFD1D7A
:1002E0009601200F311F80E38193E217F307E1F7B6
:1002F00001C08F01B801C6010E943301E601C00FA1
:10030000D11F1882C801DF91CF911F910F91FF90EB
:10031000EF90DF90CF9008952F923F924F925F928F
:100320006F927F928F929F92AF92BF92CF92DF9205
:10033000EF92FF920F931F93CF93DF934B015C01DA
:100340008A01E9010E94CF046B017C0140E050E08A
:10035000B801C6010E944A011C01209799F1F801D9
:10036000E80FF91F8EE28083BE010D2E000C880B72
:10037000990B0E9407059B01AC0160E070E080E2F0
:1003800091E40E9429062B013C01B601DD0C880B8B
:10039000990B0E9407059B01AC01C501B4010E94A5
:1003A0005D042FEF221A320A020D131DA3019201E0
:1003B0000E94BC050E94CF04DC01CB01AE01B80154
:1003C0000E944A01DF91CF911F910F91FF90EF9012
:1003D000DF90CF90BF90AF909F908F907F906F9065
:1003E0005F904F903F902F90089587B1897E87B995
:1003F000E8E6F0E0808182608083ECE6F0E08081D6
:100400008E6080830E94DA00E4E4F1E080E3808380
:1004100081839EE292838383E4E5F1E0808381839C
:100420009283838361E081E00E94FA0080E091E0A2
:100430000E941D0162E081E00E94FA0081E191E0EA
:100440000E941D017894FFCFEF92FF920F931F93AC
:10045000CF93DF93EC018B017A0161E081E00E9490
:10046000FA00EA94EF2829F480E091E00E941D014F
:1004700004C080E291E00E941D0162E081E00E94E0
:10048000FA0080E491E00E941D01C8010E941D0154
:1004900080E491E00E941D0162E08AE00E94FA007F
:1004A00080E491E00E941D01CE010E941D0180E4C4
:1004B00091E00E941D01DF91CF911F910F91FF905C
:1004C000EF900895CF93DF93EC0161E081E00E940B
:1004D000FA0081E391E00E941D0162E081E00E9448
:1004E000FA0082E491E00E941D0162E082E00E9435
:1004F000FA00CE010E941D0162E086E00E94FA002F
:100500008FE291E00E941D01DF91CF910895CF937A
:10051000DF93EC0161E081E00E94FA0081E391E069
:100520000E941D0162E08AE00E94FA0082E491E0EC
:100530000E941D0162E08BE00E94FA00CE010E9441
:100540001D0162E08FE00E94FA008FE291E00E94BC
:100550001D01DF91CF9108951F920F920FB60F9258
:1005600011242F933F934F935F936F937F938F93B8
:100570009F93AF93BF93CF93DF93EF93FF9386B196
:100580008A3709F08BC080916E0190916F018230A3
:10059000910591F08330910509F448C0892B09F049
:1005A0007DC080E291E00E941D0181E090E0909387
:1005B0006F0180936E0172C060916A0170916B014E
:1005C00080916C0190916D0120E030E040E751E4B2
:1005D0000E94CA0488230CF061C060916A01709186
:1005E0006B0180916C0190916D012DEC3CEC4CEC19
:1005F0005DE30E945E0460936A0170936B018093D7
:100600006C0190936D0160916A0170916B01809112
:100610006C0190916D0121E030E044E551E00E94D1
:100620008C0184E591E00E94620238C0609166010D
:1006300070916701809168019091690120E030E03C
:1006400044EB52E40E94CA04882344F56091660199
:100650007091670180916801909169012DEC3CECEB
:100660004CEC5DE30E945E04609366017093670149
:1006700080936801909369016091660170916701B0
:10068000809168019091690121E030E044E451E0FB
:100690000E948C0184E491E00E94870286B18C372D
:1006A00009F08BC080916E0190916F0182309105AD
:1006B000A1F08330910509F449C0019709F07DC08C
:1006C00040E050E064E571E084E491E00E9424029F
:1006D00010926F0110926E0170C060916A0170916A
:1006E0006B0180916C0190916D0120E030E0A901D7
:1006F0000E94B70518160CF060C060916A017091F5
:100700006B0180916C0190916D012DEC3CEC4CECF7
:100710005DE30E945D0460936A0170936B018093B6
:100720006C0190936D0160916A0170916B018091F1
:100730006C0190916D0121E030E044E551E00E94B0
:100740008C0184E591E00E94620237C060916601ED
:1007500070916701809168019091690120E030E01B
:10076000A9010E94B705181644F5609166017091C1
:10077000670180916801909169012DEC3CEC4CEC93
:100780005DE30E945D04609366017093670180934E
:100790006801909369016091660170916701809191
:1007A00068019091690121E030E044E451E00E9449
:1007B0008C0184E491E00E94870286B1863709F0BB
:1007C00069C080916E0190916F018130910521F196
:1007D0001CF4892B41F05EC082309105B1F1039782
:1007E00009F446C057C060916A0170916B01809115
:1007F0006C0190916D0121E030E044E551E00E94F0
:100800008C0184E591E00E94620282E090E0909386
:100810006F0180936E013EC0609166017091670127
:10082000809168019091690121E030E044E451E059
:100830000E948C0184E491E00E94870283E090E0B2
:1008400090936F0180936E0125C081E090E09093BA
:1008500065018093640141E050E064E571E084E467
:1008600091E00E94240210926F0110926E0112C05A
:10087000C1E0D0E0D0936501C093640140E050E056
:1008800064E571E084E491E00E942402D0936F015A
:10089000C0936E01FF91EF91DF91CF91BF91AF9126
:1008A0009F918F917F916F915F914F913F912F9188
:1008B0000F900FBE0F901F9018955058BB27AA2776
:1008C0000E9475040C947D050E946F0538F00E940B
:1008D000760520F039F49F3F19F426F40C946C054A
:1008E0000EF4E095E7FB0C946605E92F0E948E0557
:1008F00058F3BA17620773078407950720F079F455
:10090000A6F50C94B0050EF4E0950B2EBA2FA02D91
:100910000B01B90190010C01CA01A0011124FF27AC
:10092000591B99F0593F50F4503E68F11A16F040A7
:10093000A22F232F342F4427585FF3CF46953795A6
:100940002795A795F0405395C9F77EF41F16BA0B6B
:10095000620B730B840BBAF09150A1F0FF0FBB1F19
:10096000661F771F881FC2F70EC0BA0F621F731F62
:10097000841F48F4879577956795B795F7959E3FBF
:1009800008F0B0CF9395880F08F09927EE0F979550
:10099000879508950E94420508F481E008950E9419
:1009A000D6046894B1110C94B10508950E9496057F
:1009B00088F09F5798F0B92F9927B751B0F0E1F020
:1009C000660F771F881F991F1AF0BA95C9F714C0D0
:1009D000B13091F00E94B005B1E008950C94B005DB
:1009E000672F782F8827B85F39F0B93FCCF3869509
:1009F00077956795B395D9F73EF490958095709566
:100A000061957F4F8F4F9F4F0895E89409C097FBE2
:100A10003EF490958095709561957F4F8F4F9F4FD5
:100A20009923A9F0F92F96E9BB279395F695879519
:100A300077956795B795F111F8CFFAF4BB0F11F4DC
:100A400060FF1BC06F5F7F4F8F4F9F4F16C0882383
:100A500011F096E911C0772321F09EE8872F762FB9
:100A600005C0662371F096E8862F70E060E02AF0FA
:100A70009A95660F771F881FDAF7880F96958795E6
:100A800097F90895990F0008550FAA0BE0E8FEEFBB
:100A900016161706E807F907C0F012161306E40742
:100AA000F50798F0621B730B840B950B39F40A263B
:100AB00061F0232B242B252B21F408950A2609F419
:100AC000A140A6958FEF811D811D089597F99F671D
:100AD00080E870E060E008959FEF80EC08950024C6
:100AE0000A941616170618060906089500240A9493
:100AF00012161306140605060895092E0394000C19
:100B000011F4882352F0BB0F40F4BF2B11F460FFA7
:100B100004C06F5F7F4F8F4F9F4F089557FD9058D0
:100B2000440F551F59F05F3F71F04795880F97FBB1
:100B3000991F61F09F3F79F087950895121613066B
:100B40001406551FF2CF4695F1DF08C0161617069A
:100B50001806991FF1CF86957105610508940895CF
:100B6000E894BB2766277727CB0197F908950E9461
:100B7000420508F48FEF08950E94CF050C947D057F
:100B80000E946F0538F00E94760520F0952311F041
:100B90000C9466050C946C0511240C94B1050E940C
:100BA0008E0570F3959FC1F3950F50E0551F629F1E
:100BB000F001729FBB27F00DB11D639FAA27F00DB6
:100BC000B11DAA1F649F6627B00DA11D661F829FDD
:100BD0002227B00DA11D621F739FB00DA11D621FC2
:100BE000839FA00D611D221F749F3327A00D611DDF
:100BF000231F849F600D211D822F762F6A2F1124C1
:100C00009F5750409AF0F1F088234AF0EE0FFF1FF3
:100C1000BB1F661F771F881F91505040A9F79E3F4A
:100C2000510580F00C9466050C94B1055F3FE4F328
:100C3000983ED4F3869577956795B795F795E795A0
:100C40009F5FC1F7FE2B880F911D9695879597F9A9
:100C50000895FA01EE0FFF1F309621053105A1F12D
:100C60006115710561F48038BFE39B0749F1689411
:100C70009038810561F08038BFEF9B0741F09923E0
:100C80004AF5FF3FE1053105210519F1E894089483
:100C9000E795D901AA2329F4AB2FBE2FF85FD0F333
:100CA00010C0FF5F70F4A695E0F7F73950F019F027
:100CB000FF3A38F49F779F930DD00F9007FC905820
:100CC000089546F00C946C0560E070E080E89FE3C6
:100CD00008954FE79F775F934F933F932F930E9421
:100CE00024072F913F914F915F910E94BC050C9476
:100CF000810629F416F00C9466050C94B0050C944A
:100D00006C050E949605A8F39638A0F707F80F9295
:100D1000E8942BE33AEA48EB5FE70E94D2050F9292
:100D20000F920F924DB75EB70F920E946C07E4EBE3
:100D3000F0E00E94B3064F915F91EF91FF91E5952E
:100D4000EE1FFF1F49F0FE57E0684427EE0F441FD7
:100D5000FA95E1F74195550B0E94E6060F9007FEC4
:100D60000C94DA060895DF93CF931F930F93FF92AD
:100D7000EF92DF927B018C01689406C0DA2EEF01BE
:100D80000E94CF05FE01E894A591259135914591EA
:100D90005591A6F3EF010E947504FE019701A80189
:100DA000DA9469F7DF90EF90FF900F911F91CF9148
:100DB000DF9108959B01AC0160E070E080E89FE363
:100DC0000C94A0070C9466050C9412080E949605DA
:100DD000D8F39923C9F3940F511DA3F391505040B8
:100DE00094F059F0882332F0660F771F881F9150D6
:100DF0005040C1F79E3F51052CF7880F911D9695E5
:100E0000879597F908955F3FACF0983E9CF0BB271B
:100E1000869577956795B79508F4B1609395C1F776
:100E2000BB0F58F711F460FFE8CF6F5F7F4F8F4F14
:100E30009F4FE3CF0C94B10516F00C9412080C945C
:100E40006C0568940C9466050E949605A8F3992396
:100E5000C1F3AEF3DF93CF931F930F93FF92C92F8C
:100E6000DD2788232AF02197660F771F881FDAF77E
:100E700020E030E040E85FEB9FE3883920F0803EDF
:100E800038F021968F770E945E04ECEDF0E004C00C
:100E90000E945E04E9E0F1E00E94B3068B01BE010E
:100EA000EC01FB2E6F5771097595771F880B990B15
:100EB0000E94070528E132E741E35FE30E94CF0586
:100EC000AF2D9801AE01FF900F911F91CF91DF914F
:100ED0000E9475040C947D05FA01DC01AA0FBB1F6A
:100EE0009B01AC01BF5728F42227332744275078B1
:100EF00020C0B75190F4AB2F002446953795279525
:100F0000011CA395D2F3002071F0220F331F441F60
:100F1000B395DAF30ED00C945D0461307105A0E84E
:100F20008A07B94630F49B01AC01662777278827EA
:100F30009078309621F02083318342835383089543
:100F40000E94B4070C947D050E94760558F00E941B
:100F50006F0540F029F45F3F29F00C9466055111AC
:100F60000C94B1050C946C050E948E0568F39923CE
:100F7000B1F3552391F3951B550BBB27AA27621795
:100F80007307840738F09F5F5F4F220F331F441FA2
:100F9000AA1FA9F335D00E2E3AF0E0E832D09150D6
:100FA0005040E695001CCAF72BD0FE2F29D0660FC3
:100FB000771F881FBB1F261737074807AB07B0E806
:100FC00009F0BB0B802DBF01FF2793585F4F3AF00C
:100FD0009E3F510578F00C9466050C94B1055F3F77
:100FE000E4F3983ED4F3869577956795B795F79592
:100FF0009F5FC9F7880F911D9695879597F908957A
:10100000E1E0660F771F881FBB1F62177307840715
:10101000BA0720F0621B730B840BBA0BEE1F88F724
:10102000E09508959F3F31F0915020F48795779592
:101030006795B795880F911D9695879597F90895AF
:1010400097FB072E16F4009407D077FD09D00E9475
:10105000340807FC05D03EF4909581959F4F089584
:10106000709561957F4F0895AA1BBB1B51E107C086
:10107000AA1FBB1FA617B70710F0A61BB70B881F28
:10108000991F5A95A9F780959095BC01CD010895B7
:04109000F894FFCF02
:101094005B4845494748545D2020414E474C452014
:1010A400002030302E30202020202030302E300000
:1010B4002048454947485420205B414E474C455DF4
:1010C4000020484549474854202020414E474C457C
:0410D40020005B009D
:00000001FF
