:100000000C945A000C9477000C9477000C947700B1
:100010000C9488020C9477000C9477000C94770071
:100020000C9477000C9477000C9477000C94770074
:100030000C9477000C9477000C9477000C94770064
:100040000C9477000C9477000C9477000C94770054
:100050000C9477000C9477000C9477000C94770044
:100060000C9477000C9477000C9477000C94770034
:100070000C9477000C9477000C9477000C94770024
:100080000C9477000C9477000C9477000C94770014
:100090000C9477000C9477000C9477000C94770004
:1000A0000C9477000C9477000C9477000C947700F4
:1000B0000C94770011241FBECFEFD8E0DEBFCDBF78
:1000C00011E0A0E0B1E0E8E4FFE002C005900D928D
:1000D000A035B107D9F721E0A0E5B1E001C01D923C
:1000E000AE37B207E1F70E94C9010C94A2070C9445
:1000F00000008BB970987198729A85E08A95F1F733
:10010000000072988FE891E00197F1F700C00000BD
:1001100008958BB9709A7198729A85E08A95F1F773
:10012000000072988FE891E00197F1F700C000009D
:1001300008958FEF8AB98DB972988FE39FE1019787
:10014000F1F700C0000088E30E9479008EE00E9471
:1001500079008CE00E94790081E00E9479008FE3B1
:100160009FE10197F1F700C0000086E00E9479004E
:100170000895CF93DF9300D000D0CDB7DEB790E8DD
:10018000998390EC9A8394E99B8394ED9C83FE0180
:10019000E60FF11D81509081890F0E9479008FE850
:1001A00091E00197F1F700C000000F900F900F90C1
:1001B0000F90DF91CF9108950F931F93CF93FC0180
:1001C0008081882359F08F01C0E00E948900CF5FB1
:1001D000F801EC0FF11D80818111F7CFCF911F91B4
:1001E0000F9108958F929F92AF92BF92CF92DF921C
:1001F000EF92FF920F931F93CF93DF93CDB7DEB7AC
:100200002B970FB6F894DEBF0FBECDBF6B017C01FC
:100210008A018BE0E0E0F1E0DE01119601900D92A1
:100220008A95E1F720E030E040E85FE3C701B601DE
:100230000E94250588230CF482C020E030E040E2D3
:1002400051E4C701B6010E94250588239CF5C7012A
:10025000B6010E940F060E949C0520E3F80120834E
:10026000E1E0F0E0EC0FFD1FE60FF71F2081F80141
:1002700021832EE22283072E000C880B990B0E940B
:10028000D4059B01AC01C701B6010E94310620E0F4
:1002900030E040E251E40E9435070E949C05E1E015
:1002A000F0E0EC0FFD1FE60FF71F8081F80183835C
:1002B00014825CC0C701B6010E940F064B015C01AD
:1002C00020E030E040E251E40E942A050E949C05B3
:1002D000E1E0F0E0EC0FFD1FE60FF71F8081F80171
:1002E000808320E030E040E251E4C501B4010E9487
:1002F00031060E949C05E1E0F0E0EC0FFD1FE60FE7
:10030000F71F8081F80181838EE28283A501940129
:10031000C701B6010E94310620E030E040E251E41E
:100320000E9435070E949C05E1E0F0E0EC0FFD1F04
:10033000E60FF71F8081F8018383148217C080E3E2
:10034000F801808381838EE2828320E030E040E206
:1003500051E4C701B6010E9435070E949C05FE01C9
:10036000E60FF71F8181F801838314822B960FB665
:10037000F894DEBF0FBECDBFDF91CF911F910F91DB
:10038000FF90EF90DF90CF90BF90AF909F908F90B5
:10039000089587B1897E87B9E8E6F0E080818260C0
:1003A0008083ECE6F0E08081866180830E94990082
:1003B000E2E5F1E080E3808381839EE292838383A0
:1003C000E2E6F1E0808381839283838361E081E0D0
:1003D0000E94B9008BE091E00E94DC0062E081E0C5
:1003E0000E94B9008CE191E00E94DC007894FFCF7C
:1003F000EF92FF920F931F93CF93DF93EC018B014A
:100400007A0161E081E00E94B900EA94EF2829F4C2
:100410008BE091E00E94DC0004C08BE291E00E943E
:10042000DC0062E081E00E94B9008BE491E00E9470
:10043000DC00C8010E94DC0062E086E00E94B90096
:100440008BE491E00E94DC0062E08AE00E94B90047
:100450008BE491E00E94DC00CE010E94DC0062E0AF
:100460008FE00E94B9008BE491E00E94DC00DF91F4
:10047000CF911F910F91FF90EF900895CF93DF934D
:10048000EC0161E081E00E94B9008CE391E00E9400
:10049000DC0062E081E00E94B9008DE491E00E94FE
:1004A000DC0062E082E00E94B900CE010E94DC0024
:1004B00062E086E00E94B9008AE391E00E94DC00DD
:1004C000DF91CF910895CF93DF93EC0161E081E05C
:1004D0000E94B9008CE391E00E94DC0062E08AE0B7
:1004E0000E94B9008DE491E00E94DC0062E08BE0A4
:1004F0000E94B900CE010E94DC0062E08FE00E9401
:10050000B9008AE391E00E94DC00DF91CF91089569
:100510001F920F920FB60F9211242F933F934F9378
:100520005F936F937F938F939F93AF93BF93CF937B
:10053000DF93EF93FF938FE19EE40197F1F700C003
:10054000000086B190E0909351018093500186B1F4
:100550008B3709F0C7C080917C0190917D0182307A
:100560009105B1F08330910509F44AC0892B09F057
:10057000B9C040E050E062E671E082E591E00E949F
:10058000F80181E090E090937D0180937C01AAC006
:10059000609178017091790180917A0190917B014D
:1005A00020E030E040E751E40E94250588230CF06C
:1005B00099C0609178017091790180917A01909150
:1005C0007B012DEC3CEC4CEC5DE30E94B9046093A4
:1005D00078017093790180937A0190937B01609107
:1005E00078017091790180917A0190917B0142E6C6
:1005F00051E00E94F20082E691E00E943E0272C049
:1006000060917401709175018091760190917701EC
:1006100020E030E044EB52E40E94250588230CF0F2
:1006200061C0609174017091750180917601909123
:1006300077012DEC3CEC4CEC5DE30E94B904609337
:1006400074017093750180937601909377016091A6
:10065000740170917501809176019091770142E566
:1006600051E00E94F20060917401709175018091D7
:1006700076019091770126E636E646E151E40E9444
:100680003007181684F4609174017091750180919F
:1006900076019091770120E030E048E151E40E943A
:1006A0002505882384F06091740170917501809113
:1006B00076019091770126E636E646E151E40E9404
:1006C000250581110BC0E2E5F1E080E3808389E339
:1006D00081838EE2828384E38383148282E591E0C6
:1006E0000E94630286B18D3709F0C3C080917C01FE
:1006F00090917D0182309105A1F08330910509F43C
:1007000047C0019709F0B5C041E050E062E671E0F2
:1007100082E591E00E94F80110927D0110927C0127
:10072000A8C0609178017091790180917A019091CF
:100730007B0120E030E0A9010E94300718160CF080
:1007400098C0609178017091790180917A019091BF
:100750007B012DEC3CEC4CEC5DE30E94B804609313
:1007600078017093790180937A0190937B01609175
:1007700078017091790180917A0190917B0142E634
:1007800051E00E94F20082E691E00E943E0271C0B8
:10079000609174017091750180917601909177015B
:1007A00020E030E0A9010E94300718160CF061C06B
:1007B000609174017091750180917601909177013B
:1007C0002DEC3CEC4CEC5DE30E94B80460937401AA
:1007D0007093750180937601909377016091740115
:1007E00070917501809176019091770142E551E019
:1007F0000E94F20060917401709175018091760100
:100800009091770126E636E646E151E40E943007F2
:10081000181684F4609174017091750180917601CD
:100820009091770120E030E048E151E40E942505F5
:10083000882384F060917401709175018091760134
:100840009091770126E636E646E151E40E942505BF
:1008500081110BC0E2E5F1E080E3808389E38183CD
:100860008EE2828384E38383148282E591E00E9496
:10087000630286B18F3609F065C080917C0190914A
:100880007D018130910511F11CF4892B41F05AC092
:100890008230910591F1039709F442C053C06091F1
:1008A00078017091790180917A0190917B0142E603
:1008B00051E00E94F20082E691E00E943E0282E056
:1008C00090E090937D0180937C013CC06091740125
:1008D00070917501809176019091770142E551E028
:1008E0000E94F20082E591E00E94630283E090E0C2
:1008F00090937D0180937C0125C081E090E09093EE
:1009000073018093720141E050E062E671E082E59C
:1009100091E00E94F80110927D0110927C0112C0BA
:10092000C1E0D0E0D0937301C093720140E050E089
:1009300062E671E082E591E00E94F801D0937D01CA
:10094000C0937C0186B18F37E9F7FF91EF91DF917A
:10095000CF91BF91AF919F918F917F916F915F9157
:100960004F913F912F910F900FBE0F901F901895B0
:100970005058BB27AA270E94D0040C94DE060E9480
:10098000D00638F00E94D70620F039F49F3F19F4C2
:1009900026F40C94CD060EF4E095E7FB0C949E062D
:1009A000E92F0E94EF0658F3BA176207730784070E
:1009B000950720F079F4A6F50C9429070EF4E0953C
:1009C0000B2EBA2FA02D0B01B90190010C01CA0109
:1009D000A0011124FF27591B99F0593F50F4503EB4
:1009E00068F11A16F040A22F232F342F4427585FA6
:1009F000F3CF469537952795A795F0405395C9F7BE
:100A00007EF41F16BA0B620B730B840BBAF0915075
:100A1000A1F0FF0FBB1F661F771F881FC2F70EC014
:100A2000BA0F621F731F841F48F4879577956795E7
:100A3000B795F7959E3F08F0B0CF9395880F08F0D3
:100A40009927EE0F9795879508950E947A0608F4E6
:100A500081E008950E943E050C94DE060E94D706B0
:100A600058F00E94D00640F029F45F3F29F00C9422
:100A70009E0651110C942A070C94CD060E94EF0695
:100A800068F39923B1F3552391F3951B550BBB27BD
:100A9000AA2762177307840738F09F5F5F4F220F02
:100AA000331F441FAA1FA9F335D00E2E3AF0E0E8F9
:100AB00032D091505040E695001CCAF72BD0FE2F43
:100AC00029D0660F771F881FBB1F261737074807D7
:100AD000AB07B0E809F0BB0B802DBF01FF2793588F
:100AE0005F4F3AF09E3F510578F00C949E060C94AF
:100AF0002A075F3FE4F3983ED4F386957795679590
:100B0000B795F7959F5FC9F7880F911D96958795C3
:100B100097F90895E1E0660F771F881FBB1F6217E2
:100B200073078407BA0720F0621B730B840BBA0BA0
:100B3000EE1F88F7E09508950E94A3056894B1110F
:100B40000C942A0708950E94F70688F09F5798F0A2
:100B5000B92F9927B751B0F0E1F0660F771F881FC2
:100B6000991F1AF0BA95C9F714C0B13091F00E94DC
:100B70002907B1E008950C942907672F782F88275B
:100B8000B85F39F0B93FCCF3869577956795B39503
:100B9000D9F73EF490958095709561957F4F8F4F72
:100BA0009F4F0895E89409C097FB3EF49095809577
:100BB000709561957F4F8F4F9F4F9923A9F0F92F23
:100BC00096E9BB279395F695879577956795B795A1
:100BD000F111F8CFFAF4BB0F11F460FF1BC06F5F87
:100BE0007F4F8F4F9F4F16C0882311F096E911C099
:100BF000772321F09EE8872F762F05C0662371F0BA
:100C000096E8862F70E060E02AF09A95660F771FCD
:100C1000881FDAF7880F9695879597F908950E94AF
:100C2000110790F09F3748F4911116F00C942A07A1
:100C300060E070E080E89FEB089526F41B16611DCC
:100C4000711D811D0C94A4060C94BF060E94D00651
:100C500020F019F00E94D70650F40C94CD060C94A5
:100C60002A07E92F0E94EF0688F35523B1F3E7FB2B
:100C70006217730784079507A8F189F3E92FFF2707
:100C800088232AF03197660F771F881FDAF7952F90
:100C90005527442332F091505040220F331F441FF8
:100CA000D2F7BB27E91BF50B621B730B840BB10951
:100CB000B1F222F4620F731F841FB11D31972AF025
:100CC000660F771F881FBB1FEFCF9150504062F017
:100CD00041F0882332F0660F771F881F91505040F3
:100CE000C1F793950C94BF068695779567959F5F9E
:100CF000D9F7F7CF990F0008550FAA0BE0E8FEEFE0
:100D000016161706E807F907C0F012161306E407CF
:100D1000F50798F0621B730B840B950B39F40A26C8
:100D200061F0232B242B252B21F408950A2609F4A6
:100D3000A140A6958FEF811D811D089597F99F67AA
:100D400080E870E060E00895882371F4772321F053
:100D50009850872B762F07C0662311F499270DC072
:100D60009051862B70E060E02AF09A95660F771F0D
:100D7000881FDAF7880F9695879597F908959F3F12
:100D800031F0915020F4879577956795B795880F46
:100D9000911D9695879597F908959FEF80EC08959A
:100DA00000240A941616170618060906089500244A
:100DB0000A9412161306140605060895092E0394C4
:100DC000000C11F4882352F0BB0F40F4BF2B11F438
:100DD00060FF04C06F5F7F4F8F4F9F4F089557FD97
:100DE0009058440F551F59F05F3F71F04795880F99
:100DF00097FB991F61F09F3F79F087950895121630
:100E000013061406551FF2CF4695F1DF08C01616DB
:100E100017061806991FF1CF86957105610508948C
:100E200008950E94F706A0F0BEE7B91788F4BB2723
:100E30009F3860F41616B11D672F782F8827985FAA
:100E4000F7CF869577956795B11D93959639C8F339
:100E50000895E894BB2766277727CB0197F9089573
:100E60000E947A0608F48FEF08950E9448070C94B8
:100E7000DE060E94D00638F00E94D70620F09523A7
:100E800011F00C949E060C94CD0611240C942A07A4
:100E90000E94EF0670F3959FC1F3950F50E0551F28
:100EA000629FF001729FBB27F00DB11D639FAA27BF
:100EB000F00DB11DAA1F649F6627B00DA11D661F0E
:100EC000829F2227B00DA11D621F739FB00DA11D2F
:100ED000621F839FA00D611D221F749F3327A00DE9
:100EE000611D231F849F600D211D822F762F6A2F85
:100EF00011249F5750409AF0F1F088234AF0EE0FEA
:100F0000FF1FBB1F661F771F881F91505040A9F716
:100F10009E3F510580F00C949E060C942A075F3F7B
:100F2000E4F3983ED4F3869577956795B795F79552
:100F3000E7959F5FC1F7FE2B880F911D96958795CA
:080F400097F90895F894FFCF22
:100F480030313233343536373839005B4845494714
:100F580048545D2020414E474C4520002030302E1B
:100F680030202020202030302E30002048454947AE
:100F7800485420205B414E474C455D002048454978
:100F8800474854202020414E474C4520005B000034
:00000001FF
