S00F0000554920546573742E73726563B7
S11300000C945A000C9477000C9477000C947700AD
S11300100C9448020C9477000C9477000C947700AD
S11300200C9477000C9477000C9477000C94770070
S11300300C9477000C9477000C9477000C94770060
S11300400C9477000C9477000C9477000C94770050
S11300500C9477000C9477000C9477000C94770040
S11300600C9477000C9477000C9477000C94770030
S11300700C9477000C9477000C9477000C94770020
S11300800C9477000C9477000C9477000C94770010
S11300900C9477000C9477000C9477000C94770000
S11300A00C9477000C9477000C9477000C947700F0
S11300B00C94770011241FBECFEFD8E0DEBFCDBF74
S11300C011E0A0E0B1E0E6EEF8E002C005900D9288
S11300D0A237B107D9F721E0A2E7B1E001C01D9230
S11300E0AE39B207E1F70E9489010C9471040C94B3
S11300F000008BB970987198729A85E08A95F1F72F
S1130100000072988FE891E00197F1F700C00000B9
S113011008958BB9709A7198729A85E08A95F1F76F
S1130120000072988FE891E00197F1F700C0000099
S113013008958FEF8AB98DB972988FE39FE1019783
S1130140F1F700C0000088E30E9479008EE00E946D
S113015079008CE00E94790081E00E9479008FE3AD
S11301609FE10197F1F700C0000086E00E9479004A
S11301700895CF93DF9300D000D0CDB7DEB790E8D9
S1130180998390EC9A8394E99B8394ED9C83FE017C
S1130190E60FF11D81509081890F0E9479008FE84C
S11301A091E00197F1F700C000000F900F900F90BD
S11301B00F90DF91CF9108950F931F93CF93FC017C
S11301C08081882359F08F01C0E00E948900CF5FAD
S11301D0F801EC0FF11D80818111F7CFCF911F91B0
S11301E00F910895EF92FF920F931F93CF93DF9394
S11301F0CDB7DEB72B970FB6F894DEBF0FBECDBFD9
S11302008C019B018BE0E2E0F1E0DE0111960190AC
S11302100D928A95E1F70A3011050CF45AC00436A0
S113022011050CF580E3DB018C93C8016AE070E0F2
S11302300E944904E1E0F0E0EC0FFD1FE60FF71F18
S11302404081F90141834EE24283E1E0F0E0EC0FAA
S1130250FD1FE80FF91F8081D90113968C93139722
S113026014961C9249C0C80164E670E00E944904D7
S11302707C01E1E0F0E0EC0FFD1FE60FF71F808149
S1130280F9018083EAE0F0E0C801BF010E9449045B
S1130290CB01BF010E944904A1E0B0E0AC0FBD1F37
S11302A0A80FB91F8C91D90111968C9311978EE2E6
S11302B012968C93C701BF010E944904E1E0F0E06B
S11302C0EC0FFD1FE80FF91F8081F901838314826D
S11302D013C080E3DB018C9311968C9311978EE20B
S11302E012968C931297FE01E00FF11F81811396F1
S11302F08C93139714961C922B960FB6F894DEBF2A
S11303000FBECDBFDF91CF911F910F91FF90EF9062
S1130310089587B1897E87B9E8E6F0E0808182603C
S11303208083ECE6F0E08081866180830E949900FE
S1130330E6E7F1E080E3808381839EE29283838316
S1130340E6E8F1E0808381839283838361E081E046
S11303500E94B9008DE091E00E94DC0062E081E03F
S11303600E94B9008EE191E00E94DC007894FFCFF6
S1130370EF92FF920F931F93CF93DF93EC018B01C6
S11303807A0161E081E00E94B900EA94EF2829F43F
S11303908DE091E00E94DC0004C08DE291E00E94B7
S11303A0DC0062E081E00E94B90080E691E00E94F6
S11303B0DC00C8010E94DC0062E086E00E94B90013
S11303C080E691E00E94DC0062E08AE00E94B900CD
S11303D080E691E00E94DC00CE010E94DC0062E035
S11303E08FE00E94B90080E691E00E94DC00DF917A
S11303F0CF911F910F91FF90EF900895CF93DF93CA
S1130400EC0161E081E00E94B9008EE391E00E947A
S1130410DC0062E081E00E94B9008FE491E00E9478
S1130420DC0062E082E00E94B900CE010E94DC00A0
S113043062E086E00E94B9008CE391E00E94DC0057
S1130440DF91CF910895CF93DF93EC0161E081E0D8
S11304500E94B9008EE391E00E94DC0062E08AE031
S11304600E94B9008FE491E00E94DC0062E08BE01E
S11304700E94B900CE010E94DC0062E08FE00E947D
S1130480B9008CE391E00E94DC00DF91CF910895E4
S11304901F920F920FB60F9211242F933F934F93F5
S11304A05F936F937F938F939F93AF93BF93CF93F8
S11304B0DF93EF93FF938FE19EE40197F1F700C080
S11304C0000066B170E080E090E00E940C0460934C
S11304D0720170937301809374019093750186B1D6
S11304E08B3709F093C080919C0190919D018130DC
S11304F09105D1F01CF4892B41F088C0823091051C
S1130500A9F1039709F45BC081C040E050E066E8BC
S113051071E086E791E00E94B80181E090E0909359
S11305209D0180939C0172C08AE090E09093010148
S113053080930001F89461E081E00E94B90081E5B4
S113054091E00E94DC009FEF23ED80E39150204076
S11305508040E1F700C0000061E081E00E94B90042
S11305608DE291E00E94DC00789450C020919A01C1
S113057030919B018091000190910101820F931FA2
S1130580873991050CF042C020919A0130919B016A
S11305908091000190910101820F931F90939B0120
S11305A080939A0180919A0190919B0166E871E091
S11305B00E94F20086E891E00E94FE0127C020918B
S11305C09801309199018091000190910101820F6D
S11305D0931F85389340D4F4209198013091990168
S11305E08091000190910101820F931F90939901D2
S11305F080939801809198019091990166E771E048
S11306000E94F20086E791E00E94230286B18D37B2
S113061009F08CC080919C0190919D0181309105DD
S113062061F11CF4892B41F081C08230910591F174
S1130630039709F456C07AC081E090E090930101D9
S113064080930001F89461E00E94B90082E691E091
S11306500E94DC008FEF93ED20E381509040204016
S1130660E1F700C0000061E081E00E94B9008DE084
S113067091E00E94DC00789459C041E050E066E8C3
S113068071E086E791E00E94B80110929D011092FA
S11306909C014CC080919A0190919B012091000192
S11306A030910101821B930B0AF440C080919A019E
S11306B090919B012091000130910101821B930BC9
S11306C090939B0180939A0180919A0190919B0150
S11306D066E871E00E94F20086E891E00E94FE0163
S11306E025C0809198019091990120910001309149
S11306F00101821B930BD2F0809198019091990192
S11307002091000130910101821B930B9093990178
S113071080939801809198019091990166E771E026
S11307200E94F20086E791E00E94230286B18F3690
S113073009F05CC080919C0190919D0181309105EC
S1130740E9F01CF4892B39F051C08230910549F14C
S11307500397D1F14BC080919A0190919B0166E877
S113076071E00E94F20086E891E00E94FE0182E0BE
S113077090E090939D0180939C0138C080919801F2
S11307809091990166E771E00E94F20086E791E09A
S11307900E94230283E090E090939D0180939C014A
S11307A025C081E090E0909397018093960141E009
S11307B050E066E871E086E791E00E94B80110928B
S11307C09D0110929C0112C0C1E0D0E0D09397012A
S11307D0C093960140E050E066E871E086E791E05E
S11307E00E94B801D0939D01C0939C0186B18F37BC
S11307F0E9F7FF91EF91DF91CF91BF91AF919F9175
S11308008F917F916F915F914F913F912F910F90B5
S11308100FBE0F901F901895E89409C097FB3EF403
S113082090958095709561957F4F8F4F9F4F992339
S1130830A9F0F92F96E9BB279395F69587957795B7
S11308406795B795F111F8CFFAF4BB0F11F460FF77
S11308501BC06F5F7F4F8F4F9F4F16C0882311F0CF
S113086096E911C0772321F09EE8872F762F05C0E3
S1130870662371F096E8862F70E060E02AF09A957E
S1130880660F771F881FDAF7880F9695879597F973
S1130890089597FB072E16F4009407D077FD09D02E
S11308A00E945D0407FC05D03EF4909581959F4F0E
S11308B00895709561957F4F0895AA1BBB1B51E164
S11308C007C0AA1FBB1FA617B70710F0A61BB70BBC
S11308D0881F991F5A95A9F780959095BC01CD0161
S10908E00895F894FFCF17
S11308E6010030313233343536373839005B484508
S11308F6494748545D2020414E474C45200020304E
S1130906302E30202020202030302E300020484544
S11309164947485420205B414E474C455D002048DA
S11309264549474854202020414E474C4520005B0A
S1130936004F72646572202B2D3120202020202048
S113094620004F72646572202B2D2E31202020202A
S105095620007B
S9030000FC
