:100000000C945A000C9477000C9477000C947700B1
:100010000C9413010C9477000C9477000C947700E7
:100020000C9477000C9477000C9477000C94770074
:100030000C9477000C9477000C9477000C94770064
:100040000C9477000C9477000C9477000C94770054
:100050000C9477000C9477000C9477000C94770044
:100060000C9477000C9477000C9477000C94770034
:100070000C9477000C9477000C9477000C94770024
:100080000C9477000C9477000C9477000C94770014
:100090000C9477000C9477000C9477000C94770004
:1000A0000C9477000C9477000C9477000C947700F4
:1000B0000C94770011241FBECFEFD8E0DEBFCDBF78
:1000C00011E0A0E0B1E0EAE9F6E002C005900D928F
:1000D000A834B107D9F721E0A8E4B1E001C01D922E
:1000E000A635B207E1F70E94F2000C944B030C9482
:1000F00000008BB970987198729A85E08A95F1F733
:10010000000072988FE891E00197F1F700C00000BD
:1001100008958BB9709A7198729A85E08A95F1F773
:10012000000072988FE891E00197F1F700C000009D
:1001300008958FEF8AB98DB972988FE39FE1019787
:10014000F1F700C0000088E30E9479008EE00E9471
:1001500079008CE00E94790081E00E9479008FE3B1
:100160009FE10197F1F700C0000086E00E9479004E
:100170000895CF93DF9300D000D0CDB7DEB790E8DD
:10018000998390EC9A8394E99B8394ED9C83FE0180
:10019000E60FF11D81509081890F0E9479008FE850
:1001A00091E00197F1F700C000000F900F900F90C1
:1001B0000F90DF91CF9108950F931F93CF93FC0180
:1001C0008081882359F08F01C0E00E948900CF5FB1
:1001D000F801EC0FF11D80818111F7CFCF911F91B4
:1001E0000F91089587B1887F87B9E8E6F0E08081B4
:1001F00082608083ECE6F0E08081876080830E94EB
:10020000990061E081E00E94B90084E091E00E94E1
:10021000DC0062E081E00E94B90085E191E00E948B
:10022000DC007894FFCF1F920F920FB60F9211242B
:100230002F933F934F935F936F937F938F939F93EE
:10024000AF93BF93EF93FF9386B1847090E0909348
:1002500055018093540186B1827090E090935301D0
:100260008093520186B1282F217030E030935101E4
:10027000209350018091540190915501892B09F0F0
:10028000D3C08091520190915301892B09F068C02D
:1002900080914E0190914F018230910589F0833019
:1002A0009105B1F1892B09F0F9C084E291E00E9437
:1002B000DC0081E090E090934F0180934E01EEC00E
:1002C0006091000170910101809102019091030100
:1002D00020E030E048EC52E40E94CC0288230CF08D
:1002E000DDC0609100017091010180910201909147
:1002F00003012DEC3CEC4CEC5DE30E94600260934A
:100300000001709301018093020190930301C6C024
:1003100060914A0170914B0180914C0190914D0187
:1003200020E030E044EB52E40E94CC0288230CF041
:10033000B5C060914A0170914B0180914C01909140
:100340004D012DEC3CEC4CEC5DE30E9460026093AF
:100350004A0170934B0180934C0190934D019EC0D4
:1003600080914E0190914F018230910579F0833058
:10037000910599F1019709F091C084E091E00E9404
:10038000DC0010924F0110924E0188C06091000174
:1003900070910101809102019091030120E030E011
:1003A000A9010E94460318160CF078C06091000164
:1003B0007091010180910201909103012DEC3CECC0
:1003C0004CEC5DE30E945F026093000170930101B9
:1003D000809302019093030161C060914A01709182
:1003E0004B0180914C0190914D0120E030E0A9013A
:1003F0000E94460318160CF051C060914A0170919A
:100400004B0180914C0190914D0120E030E040E89B
:100410005FE30E945F0260934A0170934B018093F7
:100420004C0190934D013AC080915001909151013F
:10043000892BA1F580914E0190914F01813091055A
:1004400089F01CF4892B39F029C08230910589F09C
:100450000397D1F023C082E090E090934F01809306
:100460004E011CC083E090E090934F0180934E01B9
:1004700015C081E090E0909349018093480110926B
:100480004F0110924E010AC081E090E09093490123
:100490008093480190934F0180934E01FF91EF911B
:1004A000BF91AF919F918F917F916F915F914F918C
:1004B0003F912F910F900FBE0F901F90189550589D
:1004C000BB27AA270E9477020C940C030E94FE020D
:1004D00038F00E94050320F039F49F3F19F426F408
:1004E0000C94FB020EF4E095E7FB0C94F502E92F67
:1004F0000E941D0358F3BA17620773078407950714
:1005000020F079F4A6F50C943F030EF4E0950B2E41
:10051000BA2FA02D0B01B90190010C01CA01A00155
:100520001124FF27591B99F0593F50F4503E68F1B0
:100530001A16F040A22F232F342F4427585FF3CFF1
:10054000469537952795A795F0405395C9F77EF4C2
:100550001F16BA0B620B730B840BBAF09150A1F00B
:10056000FF0FBB1F661F771F881FC2F70EC0BA0F91
:10057000621F731F841F48F4879577956795B79519
:10058000F7959E3F08F0B0CF9395880F08F0992714
:10059000EE0F9795879508950E94D10208F481E0A7
:1005A0000895990F0008550FAA0BE0E8FEEF161604
:1005B0001706E807F907C0F012161306E407F50757
:1005C00098F0621B730B840B950B39F40A2661F0CB
:1005D000232B242B252B21F408950A2609F4A1406E
:1005E000A6958FEF811D811D089597F99F6780E87B
:1005F00070E060E008959FEF80EC089500240A9475
:100600001616170618060906089500240A941216ED
:100610001306140605060895092E0394000C11F420
:10062000882352F0BB0F40F4BF2B11F460FF04C0CD
:100630006F5F7F4F8F4F9F4F089557FD9058440F26
:10064000551F59F05F3F71F04795880F97FB991F31
:1006500061F09F3F79F087950895121613061406EE
:10066000551FF2CF4695F1DF08C01616170618067B
:10067000991FF1CF86957105610508940895E89456
:10068000BB2766277727CB0197F908950E94D102EF
:0A06900008F48FEF0895F894FFCFEF
:10069A00CDCC24415B4845494748545D2020414E12
:1006AA00474C4520002030302E302020202020309A
:1006BA00302E30002048454947485420205B414E9F
:1006CA00474C455D00204845494748542020204171
:0806DA004E474C4520005B0077
:00000001FF
