:100000000C947D000C949A000C949A000C949A0025
:100010000C946B020C949A000C949A000C949A0025
:100020000C949A000C949A000C949A000C949A00E8
:100030000C949A000C949A000C949A000C949A00D8
:100040000C949A000C949A000C949A000C949A00C8
:100050000C949A000C949A000C949A000C949A00B8
:100060000C949A000C949A000C949A000C949A00A8
:100070000C949A000C949A000C949A000C949A0098
:100080000C949A000C949A000C949A000C949A0088
:100090000C949A000C949A000C949A000C949A0078
:1000A0000C949A000C949A000C949A000C949A0068
:1000B0000C949A00072C7AA5BA6CC590DA3B93652C
:1000C000FC8BBC53F810FD3C5692834DBD879D3A86
:1000D000B63DCBC9BF5BBE73DA0FC93F05A84CCD97
:1000E000B2D44EB93836A9020C50B9918688083C72
:1000F000A6AAAA2ABE000000803F11241FBECFEF8F
:10010000D8E0DEBFCDBF11E0A0E0B1E0E8E0F2E171
:1001100002C005900D92A237B107D9F721E0A2E7FE
:10012000B1E001C01D92A63AB207E1F70E94AC010E
:100130000C9402090C9400008BB970987198729A13
:1001400085E08A95F1F7000072988FE891E00197B9
:10015000F1F700C0000008958BB9709A7198729AF7
:1001600085E08A95F1F7000072988FE891E0019799
:10017000F1F700C0000008958FEF8AB98DB9729829
:100180008FE39FE10197F1F700C0000088E30E9430
:100190009C008EE00E949C008CE00E949C0081E00C
:1001A0000E949C008FE39FE10197F1F700C00000DF
:1001B00086E00E949C000895CF93DF9300D000D08A
:1001C000CDB7DEB790E8998390EC9A8394E99B834E
:1001D00094ED9C83FE01E60FF11D81509081890F03
:1001E0000E949C008FE891E00197F1F700C00000A9
:1001F0000F900F900F900F90DF91CF9108950F9374
:100200001F93CF93FC018081882359F08F01C0E0B8
:100210000E94AC00CF5FF801EC0FF11D80818111CD
:10022000F7CFCF911F910F910895EF92FF920F9307
:100230001F93CF93DF93CDB7DEB72B970FB6F8940C
:10024000DEBF0FBECDBF8C019B018BE0E2E0F1E091
:10025000DE01119601900D928A95E1F70A301105A1
:100260000CF45AC0043611050CF580E3DB018C93C5
:10027000C8016AE070E00E94DA08E1E0F0E0EC0F0B
:10028000FD1FE60FF71F4081F90141834EE24283D3
:10029000E1E0F0E0EC0FFD1FE80FF91F8081D901CC
:1002A00013968C93139714961C9249C0C80164E668
:1002B00070E00E94DA087C01E1E0F0E0EC0FFD1F45
:1002C000E60FF71F8081F9018083EAE0F0E0C801C2
:1002D000BF010E94DA08CB01BF010E94DA08A1E049
:1002E000B0E0AC0FBD1FA80FB91F8C91D9011196BA
:1002F0008C9311978EE212968C93C701BF010E94D6
:10030000DA08E1E0F0E0EC0FFD1FE80FF91F808153
:10031000F9018383148213C080E3DB018C9311966F
:100320008C9311978EE212968C931297FE01E00F38
:10033000F11F818113968C93139714961C922B9620
:100340000FB6F894DEBF0FBECDBFDF91CF911F91E6
:100350000F91FF90EF90089587B1897E87B9E8E605
:10036000F0E0808182608083ECE6F0E0808186614D
:1003700080830E94BC00E6E7F1E080E38083818314
:100380009EE292838383E6E8F1E080838183928317
:10039000838361E081E00E94DC008DE091E00E94B7
:1003A000FF0062E081E00E94DC008EE191E00E94AB
:1003B000FF007894FFCFEF92FF920F931F93CF939C
:1003C000DF93EC018B017A0161E081E00E94DC00A7
:1003D000EA94EF2829F48DE091E00E94FF0004C028
:1003E0008DE291E00E94FF0062E081E00E94DC006B
:1003F00080E691E00E94FF00C8010E94FF0062E0D9
:1004000086E00E94DC0080E691E00E94FF0062E04E
:100410008AE00E94DC0080E691E00E94FF00CE01AD
:100420000E94FF0062E08FE00E94DC0080E691E025
:100430000E94FF00DF91CF911F910F91FF90EF90ED
:100440000895CF93DF93EC0161E081E00E94DC002E
:100450008EE391E00E94FF0062E081E00E94DC00F8
:100460008FE491E00E94FF0062E082E00E94DC00E5
:10047000CE010E94FF0062E086E00E94DC008CE377
:1004800091E00E94FF00DF91CF910895CF93DF9319
:10049000EC0161E081E00E94DC008EE391E00E94CB
:1004A000FF0062E08AE00E94DC008FE491E00E949D
:1004B000FF0062E08BE00E94DC00CE010E94FF00A2
:1004C00062E08FE00E94DC008CE391E00E94FF007C
:1004D000DF91CF9108951F920F920FB60F921124C2
:1004E000CF92DF92EF92FF922F933F934F935F93C0
:1004F0006F937F938F939F93AF93BF93CF93DF932C
:10050000EF93FF938FE19EE40197F1F700C00000A5
:1005100066B170E080E090E00E94A00660937201F6
:1005200070937301809374019093750186B18B373A
:1005300009F093C08091A4019091A50181309105AB
:10054000D1F01CF4892B41F088C082309105A9F1CB
:10055000039709F45BC081C040E050E066E871E0B9
:1005600086E791E00E94DB0181E090E09093A50195
:100570008093A40172C08AE090E09093010180937F
:100580000001F89461E081E00E94DC0081E591E0E7
:100590000E94FF009FEF23ED80E3915020408040B8
:1005A000E1F700C0000061E081E00E94DC008DE224
:1005B00091E00E94FF00789450C02091A2013091F8
:1005C000A3018091000190910101820F931F87394F
:1005D00091050CF042C02091A2013091A3018091BD
:1005E000000190910101820F931F9093A3018093CA
:1005F000A2018091A2019091A30166E871E00E949E
:10060000150186E891E00E94210227C02091A001F7
:100610003091A1018091000190910101820F931FFF
:1006200085389340D4F42091A0013091A1018091AC
:10063000000190910101820F931F9093A10180937B
:10064000A0018091A0019091A10166E771E00E9454
:10065000150186E791E00E94460286B18D3709F0C8
:100660008CC08091A4019091A5018130910561F128
:100670001CF4892B41F081C08230910591F10397E0
:1006800009F456C07AC081E090E090930101809314
:100690000001F89461E00E94DC0082E691E00E9493
:1006A000FF008FEF93ED20E3815090402040E1F771
:1006B00000C0000061E081E00E94DC008DE091E07C
:1006C0000E94FF00789459C041E050E066E871E074
:1006D00086E791E00E94DB011092A5011092A4012F
:1006E0004CC08091A2019091A30120910001309112
:1006F0000101821B930B0AF440C08091A2019091EA
:10070000A3012091000130910101821B930B909372
:10071000A3018093A2018091A2019091A30166E8B8
:1007200071E00E94150186E891E00E94210225C037
:100730008091A0019091A1012091000130910101CF
:10074000821B930BD2F08091A0019091A101209186
:10075000000130910101821B930B9093A1018093C2
:10076000A0018091A0019091A10166E771E00E9433
:10077000150186E791E00E94460286B18F3609F0A6
:100780009AC18091A4019091A50181309105F1F069
:100790001CF4892B41F08FC18230910551F10397F0
:1007A00009F4DFC088C18091A2019091A30166E89D
:1007B00071E00E94150186E891E00E94210282E02A
:1007C00090E09093A5018093A40175C18091A00150
:1007D0009091A10166E771E00E94150186E791E022
:1007E0000E94460283E090E09093A5018093A401CB
:1007F00062C181E090E090939701809396016091AF
:10080000A2017091A301072E000C880B990B0E9486
:10081000A20660939C0170939D0180939E0190932A
:100820009F0160919C0170919D0180919E0190912A
:100830009F0120E030E040E251E40E94F80560931F
:100840009C0170939D0180939E0190939F01609104
:100850009C0170919D0180919E0190919F0120913A
:100860009C0130919D0140919E0150919F010E94F9
:100870000C0860939C0170939D0180939E0190935E
:100880009F01C0909C01D0909D01E0909E01F0904E
:100890009F01A701960160E070E081E693E40E9469
:1008A00086050E947F0820E030E040E751E40E9486
:1008B000F80560939C0170939D0180939E01909335
:1008C0009F0160919C0170919D0180919E0190918A
:1008D0009F010E94750520EE3EE245E652E40E942B
:1008E0000C0860939C0170939D0180939E019093EE
:1008F0009F0160919C0170919D0180919E0190915A
:100900009F0120E030E040E251E40E940C080E9488
:10091000DD060E946A067093A1016093A001809198
:10092000A2019091A3018639910531F484E893E006
:100930009093A1018093A0018091A0019091A101C9
:1009400066E771E00E94150141E050E066E871E061
:1009500086E791E00E94DB011092A5011092A401AC
:10096000AAC0C1E0D0E0D0939701C09396016091F6
:10097000A0017091A101072E000C880B990B0E9419
:10098000A206609398017093990180939A019093C5
:100990009B01609198017091990180919A019091C9
:1009A0009B0120E030E040E251E40E94F80525E39D
:1009B0003AEF4EE85CE30E940C0860939801709354
:1009C000990180939A0190939B0160919801709195
:1009D000990180919A0190919B010E94F30520E07A
:1009E00030E040E751E40E940C0860939801709356
:1009F000990180939A0190939B0160919801709165
:100A0000990180919A0190919B01209198013091D8
:100A1000990140919A0150919B010E940C086093AA
:100A200098017093990180939A0190939B01C090D3
:100A30009801D0909901E0909A01F0909B01A70154
:100A4000960160E070E081E693E40E9486050E94D2
:100A50007F08609398017093990180939A01909315
:100A60009B01609198017091990180919A019091F8
:100A70009B0120E030E040E251E40E940C080E941B
:100A8000DD060E946A067093A3016093A201809123
:100A9000A2019091A30166E871E00E94150140E077
:100AA00050E066E871E086E791E00E94DB01D093B8
:100AB000A501C093A40186B18F37E9F7FF91EF91AB
:100AC000DF91CF91BF91AF919F918F917F916F9166
:100AD0005F914F913F912F91FF90EF90DF90CF90DA
:100AE0000F900FBE0F901F9018959F939F770E94B5
:100AF000F4060F90002042F49058A2EA2AED3FE05D
:100B000049E450E40E949E050C94A6075058BB2768
:100B1000AA270E949E050C94A6070E946D0738F034
:100B20000E94740720F039F49F3F19F426F40C94C6
:100B300043070EF4E095E7FB0C941407E92F0E949D
:100B4000CB0758F3BA17620773078407950720F09D
:100B500079F4A6F50C9405080EF4E0950B2EBA2F47
:100B6000A02D0B01B90190010C01CA01A0011124B3
:100B7000FF27591B99F0593F50F4503E68F11A165F
:100B8000F040A22F232F342F4427585FF3CF4695F0
:100B900037952795A795F0405395C9F77EF41F1612
:100BA000BA0B620B730B840BBAF09150A1F0FF0FDC
:100BB000BB1F661F771F881FC2F70EC0BA0F621FC8
:100BC000731F841F48F4879577956795B795F795B8
:100BD0009E3F08F0B0CF9395880F08F09927EE0F4D
:100BE0009795879508950E947D07E3950C94B70724
:100BF0000E940C060C94A6070E94740758F00E94ED
:100C00006D0740F029F45F3F29F00C94140751114F
:100C10000C9406080C9443070E94CB0768F39923B1
:100C2000B1F3552391F3951B550BBB27AA276217E8
:100C30007307840738F09F5F5F4F220F331F441FF5
:100C4000AA1FA9F335D00E2E3AF0E0E832D0915029
:100C50005040E695001CCAF72BD0FE2F29D0660F16
:100C6000771F881FBB1F261737074807AB07B0E859
:100C700009F0BB0B802DBF01FF2793585F4F3AF05F
:100C80009E3F510578F00C9414070C9406085F3FC2
:100C9000E4F3983ED4F3869577956795B795F795E5
:100CA0009F5FC9F7880F911D9695879597F90895CD
:100CB000E1E0660F771F881FBB1F62177307840769
:100CC000BA0720F0621B730B840BBA0BEE1F88F778
:100CD000E09508950E9471066894B1110C9406087D
:100CE00008950E94D30788F09F5798F0B92F99274D
:100CF000B751B0F0E1F0660F771F881F991F1AF007
:100D0000BA95C9F714C0B13091F00E940508B1E05E
:100D100008950C940508672F782F8827B85F39F05D
:100D2000B93FCCF3869577956795B395D9F73EF49F
:100D300090958095709561957F4F8F4F9F4F089547
:100D4000E89409C097FB3EF4909580957095619565
:100D50007F4F8F4F9F4F9923A9F0F92F96E9BB271B
:100D60009395F695879577956795B795F111F8CF97
:100D7000FAF4BB0F11F460FF1BC06F5F7F4F8F4F02
:100D80009F4F16C0882311F096E911C0772321F0F8
:100D90009EE8872F762F05C0662371F096E8862F90
:100DA00070E060E02AF09A95660F771F881FDAF7E7
:100DB000880F9695879597F908950E94ED0790F012
:100DC0009F3748F4911116F00C94060860E070E02B
:100DD00080E89FEB089526F41B16611D711D811D8F
:100DE0000C941A070C943507DF93CF931F930F933E
:100DF0008B01EC01E4EBF0E00E9446070E94A6079D
:100E00009801AE018B01EC0160E070E080E89FE3A7
:100E10000E9486050E947F089801AE010F911F91E4
:100E2000CF91DF910C941F0897F99F6780E870E0DD
:100E300060E00895882371F4772321F09850872B80
:100E4000762F07C0662311F499270DC09051862B89
:100E500070E060E02AF09A95660F771F881FDAF736
:100E6000880F9695879597F908959F3F31F0915097
:100E700020F4879577956795B795880F911D96957E
:100E8000879597F908959FEF80EC0895DF93CF93AE
:100E90001F930F93FF92EF92DF927B018C01689476
:100EA00006C0DA2EEF010E941F08FE01E894A5910A
:100EB0002591359145915591A6F3EF010E949E052C
:100EC000FE019701A801DA9469F7DF90EF90FF9097
:100ED0000F911F91CF91DF91089500240A94161667
:100EE000170618060906089500240A941216130618
:100EF0001406050608950C9443070E94D307D8F3FF
:100F0000E894E0E0BB279F57F0F02AED3FE049EC82
:100F100006C0EE0FBB0F661F771F881F28F0B23A7E
:100F200062077307840728F0B25A620B730B840BB5
:100F3000E3959A9572F7803830F49A95BB0F661F47
:100F4000771F881FD2F790480C943707092E039417
:100F5000000C11F4882352F0BB0F40F4BF2B11F4A6
:100F600060FF04C06F5F7F4F8F4F9F4F0895EF93D7
:100F7000E0FF07C0A2EA2AED3FE049EC5FEB0E94E8
:100F80009E050E94A6070F90039401FC9058ECED7B
:100F9000F0E00C94C60857FD9058440F551F59F0C7
:100FA0005F3F71F04795880F97FB991F61F09F3F56
:100FB00079F087950895121613061406551FF2CF7F
:100FC0004695F1DF08C0161617061806991FF1CFCF
:100FD000869571056105089408950E94D307A0F0D5
:100FE000BEE7B91788F4BB279F3860F41616B11D09
:100FF000672F782F8827985FF7CF86957795679525
:10100000B11D93959639C8F30895E894BB276627D8
:101010007727CB0197F908950E941F080C94A60723
:101020000E946D0738F00E94740720F0952311F09C
:101030000C9414070C94430711240C9406080E9486
:10104000CB0770F3959FC1F3950F50E0551F629F3A
:10105000F001729FBB27F00DB11D639FAA27F00D11
:10106000B11DAA1F649F6627B00DA11D661F829F38
:101070002227B00DA11D621F739FB00DA11D621F1D
:10108000839FA00D611D221F749F3327A00D611D3A
:10109000231F849F600D211D822F762F6A2F11241C
:1010A0009F5750409AF0F1F088234AF0EE0FFF1F4F
:1010B000BB1F661F771F881F91505040A9F79E3FA6
:1010C000510580F00C9414070C9406085F3FE4F37C
:1010D000983ED4F3869577956795B795F795E795FC
:1010E0009F5FC1F7FE2B880F911D9695879597F905
:1010F000089519F416F40C9443070C9435070E94D4
:10110000D307B8F39923C9F3B6F39F57550B87FF5D
:101110000E94BF080024A0E640EA9001805856953E
:10112000979528F4805C660F771F881F20F026179C
:101130003707480730F4621B730B840B20293129D1
:101140004A2BA69517940794202531254A2758F74E
:10115000660F771F881F20F026173707480730F4DF
:10116000620B730B840B200D311D411DA09581F77F
:10117000B901842F9158880F9695879508959150BD
:101180005040660F771F881FD2F708959F938F9363
:101190007F936F93FF93EF939B01AC010E940C0828
:1011A000EF91FF910E9446072F913F914F915F91E0
:1011B0000C940C0897FB072E16F4009407D077FDCB
:1011C00009D00E94EE0807FC05D03EF49095819569
:1011D0009F4F0895709561957F4F0895AA1BBB1B83
:1011E00051E107C0AA1FBB1FA617B70710F0A61B27
:1011F000B70B881F991F5A95A9F780959095BC0148
:08120000CD010895F894FFCF21
:10120800010030313233343536373839005B4845E0
:10121800494748545D2020414E474C452000203026
:10122800302E30202020202030302E30002048451D
:101238004947485420205B414E474C455D002048B3
:101248004549474854202020414E474C4520005BE3
:10125800004F72646572202B2D3120202020202021
:1012680020004F72646572202B2D2E312020202003
:02127800200054
:00000001FF
