:100000000C945A000C9477000C9477000C947700B1
:100010000C9448020C9477000C9477000C947700B1
:100020000C9477000C9477000C9477000C94770074
:100030000C9477000C9477000C9477000C94770064
:100040000C9477000C9477000C9477000C94770054
:100050000C9477000C9477000C9477000C94770044
:100060000C9477000C9477000C9477000C94770034
:100070000C9477000C9477000C9477000C94770024
:100080000C9477000C9477000C9477000C94770014
:100090000C9477000C9477000C9477000C94770004
:1000A0000C9477000C9477000C9477000C947700F4
:1000B0000C94770011241FBECFEFD8E0DEBFCDBF78
:1000C00011E0A0E0B1E0E8EFF7E002C005900D928A
:1000D000A035B107D9F721E0A0E5B1E001C01D923C
:1000E000AC37B207E1F70E9489010C94FA030C9433
:1000F00000008BB970987198729A85E08A95F1F733
:10010000000072988FE891E00197F1F700C00000BD
:1001100008958BB9709A7198729A85E08A95F1F773
:10012000000072988FE891E00197F1F700C000009D
:1001300008958FEF8AB98DB972988FE39FE1019787
:10014000F1F700C0000088E30E9479008EE00E9471
:1001500079008CE00E94790081E00E9479008FE3B1
:100160009FE10197F1F700C0000086E00E9479004E
:100170000895CF93DF9300D000D0CDB7DEB790E8DD
:10018000998390EC9A8394E99B8394ED9C83FE0180
:10019000E60FF11D81509081890F0E9479008FE850
:1001A00091E00197F1F700C000000F900F900F90C1
:1001B0000F90DF91CF9108950F931F93CF93FC0180
:1001C0008081882359F08F01C0E00E948900CF5FB1
:1001D000F801EC0FF11D80818111F7CFCF911F91B4
:1001E0000F910895EF92FF920F931F93CF93DF9398
:1001F000CDB7DEB72B970FB6F894DEBF0FBECDBFDD
:100200008C019B018BE0E0E0F1E0DE0111960190B2
:100210000D928A95E1F70A3011050CF45AC00436A4
:1002200011050CF580E3DB018C93C8016AE070E0F6
:100230000E94D203E1E0F0E0EC0FFD1FE60FF71F94
:100240004081F90141834EE24283E1E0F0E0EC0FAE
:10025000FD1FE80FF91F8081D90113968C93139726
:1002600014961C9249C0C80164E670E00E94D20353
:100270007C01E1E0F0E0EC0FFD1FE60FF71F80814D
:10028000F9018083EAE0F0E0C801BF010E94D203D7
:10029000CB01BF010E94D203A1E0B0E0AC0FBD1FB3
:1002A000A80FB91F8C91D90111968C9311978EE2EA
:1002B00012968C93C701BF010E94D203E1E0F0E0E7
:1002C000EC0FFD1FE80FF91F8081F9018383148271
:1002D00013C080E3DB018C9311968C9311978EE20F
:1002E00012968C931297FE01E00FF11F81811396F5
:1002F0008C93139714961C922B960FB6F894DEBF2E
:100300000FBECDBFDF91CF911F910F91FF90EF9066
:10031000089587B1897E87B9E8E6F0E08081826040
:100320008083ECE6F0E08081866180830E94990002
:10033000E4E5F1E080E3808381839EE2928383831E
:10034000E4E6F1E0808381839283838361E081E04E
:100350000E94B9008BE091E00E94DC0062E081E045
:100360000E94B9008CE191E00E94DC007894FFCFFC
:10037000EF92FF920F931F93CF93DF93EC018B01CA
:100380007A0161E081E00E94B900EA94EF2829F443
:100390008BE091E00E94DC0004C08BE291E00E94BF
:1003A000DC0062E081E00E94B9008BE491E00E94F1
:1003B000DC00C8010E94DC0062E086E00E94B90017
:1003C0008BE491E00E94DC0062E08AE00E94B900C8
:1003D0008BE491E00E94DC00CE010E94DC0062E030
:1003E0008FE00E94B9008BE491E00E94DC00DF9175
:1003F000CF911F910F91FF90EF900895CF93DF93CE
:10040000EC0161E081E00E94B9008CE391E00E9480
:10041000DC0062E081E00E94B9008DE491E00E947E
:10042000DC0062E082E00E94B900CE010E94DC00A4
:1004300062E086E00E94B9008AE391E00E94DC005D
:10044000DF91CF910895CF93DF93EC0161E081E0DC
:100450000E94B9008CE391E00E94DC0062E08AE037
:100460000E94B9008DE491E00E94DC0062E08BE024
:100470000E94B900CE010E94DC0062E08FE00E9481
:10048000B9008AE391E00E94DC00DF91CF910895EA
:100490001F920F920FB60F9211242F933F934F93F9
:1004A0005F936F937F938F939F93AF93BF93CF93FC
:1004B000DF93EF93FF938FE19EE40197F1F700C084
:1004C000000066B170E080E090E00E9495036093C8
:1004D000500170935101809352019093530186B162
:1004E0008B3709F055C080917A0190917B01823061
:1004F0009105A9F08330910579F1892B09F048C065
:1005000040E050E064E671E084E591E00E94B801CB
:1005100081E090E090937B0180937A0139C08091D3
:100520007801909179018639910594F5809178014F
:10053000909179010196909379018093780180914F
:1005400078019091790164E671E00E94F20084E6FE
:1005500091E00E94FE011CC080917601909177018C
:1005600084389340ACF480917601909177010196A4
:100570009093770180937601809176019091770135
:1005800064E571E00E94F20084E591E00E9423029C
:1005900086B18D3709F053C080917A0190917B012B
:1005A0008230910599F08330910569F1019709F046
:1005B00046C041E050E064E671E084E591E00E94CD
:1005C000B80110927B0110927A0139C080917801B4
:1005D000909179011816190694F5809178019091FF
:1005E0007901019790937901809378018091780146
:1005F0009091790164E671E00E94F20084E691E056
:100600000E94FE011CC0809176019091770118161E
:100610001906ACF48091760190917701019790933F
:10062000770180937601809176019091770164E55E
:1006300071E00E94F20084E591E00E94230286B1FD
:100640008F3609F05CC080917A0190917B018130F6
:100650009105E9F01CF4892B39F051C082309105E5
:1006600049F10397D1F14BC08091780190917901C4
:1006700064E671E00E94F20084E691E00E94FE01CF
:1006800082E090E090937B0180937A0138C0809162
:1006900076019091770164E571E00E94F20084E5B3
:1006A00091E00E94230283E090E090937B0180938D
:1006B0007A0125C081E090E09093750180937401E8
:1006C00041E050E064E671E084E591E00E94B80109
:1006D00010927B0110927A0112C0C1E0D0E0D09359
:1006E0007501C093740140E050E064E671E084E578
:1006F00091E00E94B801D0937B01C0937A0186B14A
:100700008F37E9F7FF91EF91DF91CF91BF91AF91D3
:100710009F918F917F916F915F914F913F912F9119
:100720000F900FBE0F901F901895E89409C097FB8B
:100730003EF490958095709561957F4F8F4F9F4FB8
:100740009923A9F0F92F96E9BB279395F6958795FC
:1007500077956795B795F111F8CFFAF4BB0F11F4BF
:1007600060FF1BC06F5F7F4F8F4F9F4F16C0882366
:1007700011F096E911C0772321F09EE8872F762F9C
:1007800005C0662371F096E8862F70E060E02AF0DD
:100790009A95660F771F881FDAF7880F96958795C9
:1007A00097F9089597FB072E16F4009407D077FD6C
:1007B00009D00E94E60307FC05D03EF49095819590
:1007C0009F4F0895709561957F4F0895AA1BBB1B9D
:1007D00051E107C0AA1FBB1FA617B70710F0A61B41
:1007E000B70B881F991F5A95A9F780959095BC0162
:0807F000CD010895F894FFCF3C
:1007F80030313233343536373839005B484549476C
:1008080048545D2020414E474C4520002030302E72
:1008180030202020202030302E3000204845494705
:10082800485420205B414E474C455D0020484549CF
:10083800474854202020414E474C4520005B00008B
:00000001FF
