S00B000050574D2E7372656325
S11300000C945A000C946C000C946C000C946C00CE
S11300100C946C000C946C000C946C000C946C00AC
S11300200C946C000C946C000C946C000C946C009C
S11300300C946C000C946C000C946C000C946C008C
S11300400C946C000C946C000C946C000C946C007C
S11300500C946C000C946C000C946C000C946C006C
S11300600C946C000C946C000C946C000C946C005C
S11300700C946C000C946C000C946C000C946C004C
S11300800C946C000C946C000C946C000C94920016
S11300900C946C000C946C000C946C000C946C002C
S11300A00C946C000C946C000C946C000C946C001C
S11300B00C946C0011241FBECFEFD8E0DEBFCDBF7F
S11300C021E0A0E0B1E001C01D92A230B207E1F747
S11300D00E946E000C94BB000C940000219A15B889
S11300E082EC809380008AE1809381008FE39CE915
S11300F090938700809386008FE99CE89093890011
S1130100809388001092900085E08093910081E0B4
S11301108093710087EF92EC909395008093940004
S11301207894FFCF1F920F920FB60F9211248F93E2
S11301309F9387EF92EC9093950080939400809125
S113014000019091010101969093010180930001B7
S11301508091000190910101059731F48FE694E9B3
S113016090938900809388009F918F910F900FBE88
S10D01700F901F901895F894FFCF2C
S9030000FC
