:100000000C949B000C94B0000C94B0000C94B000C5
:100010000C94B0000C94B0000C94B0000C94B000A0
:100020000C94B0000C94B0000C94B0000C94B00090
:100030000C94B0000C94B0000C94B0000C94B00080
:100040000C94B0000C94B0000C94B0000C94B00070
:100050000C94B0000C94B0000C94B0000C94B00060
:100060000C94B0000C94B0000C94B0000C94B00050
:100070000C94B0000C94B0000C94B0000C94B00040
:100080000C94B0000C94B0000C94B0000C94B00030
:100090000C94B0000C94B0000C94B0000C94B00020
:1000A0000C94B0000C94B0000C94B0000C94B00010
:1000B0000C94B00007634236B79BD8A71A3968562C
:1000C00018AEBAAB558C1D3CB7CC5763BD6DEDFD7A
:1000D000753EF6177231BF000000803F0800000037
:1000E000BE922449123EABAAAA2ABECDCCCC4C3E2D
:1000F00000000080BEABAAAAAA3E00000000BF001C
:100100000000803F0000000000084178D3BB438717
:10011000D1133D190E3CC3BD4282AD2B3E68EC822B
:1001200076BED98FE1A93E4C80EFFFBE01C4FF7FB0
:100130003F000000000011241FBECFEFD8E0DEBF5B
:10014000CDBF11E0A0E0B1E0ECEEFDE002C0059013
:100150000D92A434B107D9F70E9475020C94F406ED
:100160000C9400008BB9289829982A9A85E08A95E2
:10017000F1F700002A988FE891E00197F1F700C0AD
:10018000000008958BB9289A29982A9A85E08A95C3
:10019000F1F700002A988FE891E00197F1F700C08D
:1001A000000008958FEF8AB984B92A988FE39FE100
:1001B0000197F1F700C0000088E30E94B2008EE0D2
:1001C0000E94B2008CE00E94B20081E00E94B20066
:1001D0008FE39FE10197F1F700C0000086E00E94E5
:1001E000B2000895CF93DF9300D000D0CDB7DEB733
:1001F00090E8998390EC9A8394E99B8394ED9C8397
:10020000FE01E60FF11D81509081890F0E94B2001E
:100210008FE891E00197F1F700C000000F900F9078
:100220000F900F90DF91CF9108950F931F93CF936D
:10023000FC018081882359F08F01C0E00E94C20038
:10024000CF5FF801EC0FF11D80818111F7CFCF91C5
:100250001F910F9108959B01215031091216130629
:1002600084F4FC01E60FF71FDC0180E090E04C9184
:1002700052915D9340830196215031098217930773
:10028000B4F30895CF92DF92EF92FF920F931F93F2
:10029000CF93DF936B018A01009799F0EB01E0E0C7
:1002A000F0E00F2EFAE0EF2EF12CF02D3196B70191
:1002B0000E94CC06805D8993862F972F0097B1F717
:1002C00002C0E0E0F0E0E017F1075CF4EC0DFD1D8A
:1002D0009601200F311F80E38193E217F307E1F7C6
:1002E00001C08F01B801C6010E942B01E601C00FB9
:1002F000D11F1882C801DF91CF911F910F91FF90FC
:10030000EF90DF90CF9008952F923F924F925F929F
:100310006F927F928F929F92AF92BF92CF92DF9215
:10032000EF92FF920F931F93CF93DF934B015C01EA
:100330008A01E9010E94A4036B017C0140E050E0C6
:10034000B801C6010E9442011C01209799F1F801F1
:10035000E80FF91F8EE28083BE010D2E000C880B82
:10036000990B0E94DC039B01AC0160E070E080E22D
:1003700091E40E94D5042B013C01B601DD0C880BF1
:10038000990B0E94DC039B01AC01C501B4010E94E2
:1003900037032FEF221A320A020D131DA301920117
:1003A0000E9468040E94A403DC01CB01AE01B801E5
:1003B0000E944201DF91CF911F910F91FF90EF902A
:1003C000DF90CF90BF90AF909F908F907F906F9075
:1003D0005F904F903F902F900895EF92FF920F9370
:1003E0001F93CF93DF93EC018B017A0161E081E0F1
:1003F0000E94F200EA94EF2829F480E091E00E9444
:10040000150104C081E191E00E94150162E081E0E4
:100410000E94F20081E391E00E941501C8010E9450
:10042000150181E391E00E94150162E08AE00E94DB
:10043000F20081E391E00E941501CE010E941501B6
:1004400081E391E00E941501DF91CF911F910F91FF
:10045000FF90EF900895CF93DF93EC0161E081E08E
:100460000E94F20082E291E00E94150162E081E0C8
:100470000E94F20083E391E00E94150162E082E0B5
:100480000E94F200CE010E94150162E086E00E9407
:10049000F20080E291E00E941501DF91CF91089572
:1004A000CF93DF93EC0161E081E00E94F20082E2F1
:1004B00091E00E94150162E08AE00E94F20083E36D
:1004C00091E00E94150162E08BE00E94F200CE01F3
:1004D0000E94150162E08FE00E94F20080E291E04C
:1004E0000E941501DF91CF910895CF93DF93CDB78F
:1004F000DEB7A0970FB6F894DEBF0FBECDBF1A824D
:1005000019828EE0FE013396DF01282F1D922A9575
:10051000E9F71A8A198A7096DF011D928A95E9F720
:100520000E94D20080E3898B8A8B9EE29B8B8C8B0E
:1005300089838A839B838C8361E081E00E94F2003F
:1005400080E091E00E94150162E081E00E94F200EB
:1005500085E391E00E941501BFEF27EA81E6B150E3
:1005600020408040E1F700C00000CE0101960E94CB
:100570002B029FEFA7EAB1E69150A040B040E1F70F
:1005800000C0000021E030E0AE014F5F5F4F63E349
:1005900073E387E092E40E948401CE0101960E94F9
:1005A0002B022FEF87EA91E6215080409040E1F73F
:1005B00000C0000041E050E0BE016F5F7F4FCE0100
:1005C00041960E94ED01AFEFB7EA21E6A150B0409D
:1005D0002040E1F700C0000040E050E0BE016F5F46
:1005E0007F4FCE0141960E94ED018FEF97EAA1E681
:1005F00081509040A040E1F700C00000CE0141963C
:100600000E945002BFEF27EA81E6B15020408040AF
:10061000E1F700C0000021E030E0AE014F5E5F4F27
:100620006AE979E987E192E40E948401CE0141966A
:100630000E9450029FEFA7EAB1E69150A040B0405F
:10064000E1F700C0000041E050E0BE016F5F7F4F66
:10065000CE0141960E94ED0180E090E0A0960FB699
:10066000F894DEBF0FBECDBFDF91CF9108955058F3
:10067000BB27AA270E944F030C942E040E9420043B
:1006800038F00E94270420F039F49F3F19F426F433
:100690000C941D040EF4E095E7FB0C941704E92F6D
:1006A0000E943F0458F3BA1762077307840795073F
:1006B00020F079F4A6F50C9461040EF4E0950B2E6D
:1006C000BA2FA02D0B01B90190010C01CA01A001A4
:1006D0001124FF27591B99F0593F50F4503E68F1FF
:1006E0001A16F040A22F232F342F4427585FF3CF40
:1006F000469537952795A795F0405395C9F77EF411
:100700001F16BA0B620B730B840BBAF09150A1F059
:10071000FF0FBB1F661F771F881FC2F70EC0BA0FDF
:10072000621F731F841F48F4879577956795B79567
:10073000F7959E3F08F0B0CF9395880F08F0992762
:10074000EE0F9795879508950E94AB036894B111B9
:100750000C94620408950E94470488F09F5798F013
:10076000B92F9927B751B0F0E1F0660F771F881FB6
:10077000991F1AF0BA95C9F714C0B13091F00E94D0
:100780006104B1E008950C946104672F782F8827E5
:10079000B85F39F0B93FCCF3869577956795B395F7
:1007A000D9F73EF490958095709561957F4F8F4F66
:1007B0009F4F0895E89409C097FB3EF4909580956B
:1007C000709561957F4F8F4F9F4F9923A9F0F92F17
:1007D00096E9BB279395F695879577956795B79595
:1007E000F111F8CFFAF4BB0F11F460FF1BC06F5F7B
:1007F0007F4F8F4F9F4F16C0882311F096E911C08D
:10080000772321F09EE8872F762F05C0662371F0AD
:1008100096E8862F70E060E02AF09A95660F771FC1
:10082000881FDAF7880F9695879597F9089597F9B5
:100830009F6780E870E060E008959FEF80EC089586
:1008400000240A94161617061806090608950024AF
:100850000A9412161306140605060895092E039429
:10086000000C11F4882352F0BB0F40F4BF2B11F49D
:1008700060FF04C06F5F7F4F8F4F9F4F089557FDFC
:100880009058440F551F59F05F3F71F04795880FFE
:1008900097FB991F61F09F3F79F087950895121695
:1008A00013061406551FF2CF4695F1DF08C0161641
:1008B00017061806991FF1CF8695710561050894F2
:1008C0000895E894BB2766277727CB0197F9089509
:1008D0000E947B040C942E040E94200438F00E9495
:1008E000270420F0952311F00C9417040C941D0498
:1008F00011240C9462040E943F0470F3959FC1F38D
:10090000950F50E0551F629FF001729FBB27F00DBD
:10091000B11D639FAA27F00DB11DAA1F649F662712
:10092000B00DA11D661F829F2227B00DA11D621F61
:10093000739FB00DA11D621F839FA00D611D221F1B
:10094000749F3327A00D611D231F849F600D211DFF
:10095000822F762F6A2F11249F5750409AF0F1F082
:1009600088234AF0EE0FFF1FBB1F661F771F881FEB
:1009700091505040A9F79E3F510580F00C94170408
:100980000C9462045F3FE4F3983ED4F38695779528
:100990006795B795F795E7959F5FC1F7FE2B880F91
:1009A000911D9695879597F90895FA01EE0FFF1F0F
:1009B000309621053105A1F16115710561F480388A
:1009C000BFE39B0749F168949038810561F0803856
:1009D000BFEF9B0741F099234AF5FF3FE105310541
:1009E000210519F1E8940894E795D901AA2329F47F
:1009F000AB2FBE2FF85FD0F310C0FF5F70F4A69549
:100A0000E0F7F73950F019F0FF3A38F49F779F93E9
:100A10000DD00F9007FC9058089546F00C941D04DB
:100A200060E070E080E89FE308954FE79F775F9371
:100A30004F933F932F930E94D0052F913F914F9159
:100A40005F910E9468040C942D0529F416F00C9413
:100A500017040C9461040C941D040E944704A8F32D
:100A60009638A0F707F80F92E8942BE33AEA48EBA0
:100A70005FE70E947E040F920F920F924DB75EB710
:100A80000F920E941806E4EBF0E00E945F054F9180
:100A90005F91EF91FF91E595EE1FFF1F49F0FE5723
:100AA000E0684427EE0F441FFA95E1F74195550B96
:100AB0000E9492050F9007FE0C9486050895DF931F
:100AC000CF931F930F93FF92EF92DF927B018C01E4
:100AD000689406C0DA2EEF010E947B04FE01E894C0
:100AE000A5912591359145915591A6F3EF010E946D
:100AF0004F03FE019701A801DA9469F7DF90EF90A8
:100B0000FF900F911F91CF91DF9108959B01AC0150
:100B100060E070E080E89FE30C944C060C941704AE
:100B20000C94BE060E944704D8F39923C9F3940F8E
:100B3000511DA3F39150504094F059F0882332F0A6
:100B4000660F771F881F91505040C1F79E3F510597
:100B50002CF7880F911D9695879597F908955F3F1B
:100B6000ACF0983E9CF0BB27869577956795B79536
:100B700008F4B1609395C1F7BB0F58F711F460FF0B
:100B8000E8CF6F5F7F4F8F4F9F4FE3CF0C9462048E
:100B900016F00C94BE060C941D0468940C94170473
:100BA0000E944704A8F39923C1F3AEF3DF93CF93D8
:100BB0001F930F93FF92C92FDD2788232AF02197D7
:100BC000660F771F881FDAF720E030E040E85FEB20
:100BD0009FE3883920F0803E38F021968F770E947D
:100BE0003803ECEDF0E004C00E943803E9E0F1E0E6
:100BF0000E945F058B01BE01EC01FB2E6F5771094E
:100C00007595771F880B990B0E94DC0328E132E76A
:100C100041E35FE30E947B04AF2D9801AE01FF909A
:100C20000F911F91CF91DF910E944F030C942E04DE
:100C3000FA01DC01AA0FBB1F9B01AC01BF5728F4CE
:100C4000222733274427507820C0B75190F4AB2F88
:100C50000024469537952795011CA395D2F30020D3
:100C600071F0220F331F441FB395DAF30ED00C94AA
:100C7000370361307105A0E88A07B94630F49B015B
:100C8000AC016627772788279078309621F020835B
:100C900031834283538308950E9460060C942E048E
:100CA0000E94270458F00E94200440F029F45F3F7E
:100CB00029F00C94170451110C9462040C941D0437
:100CC0000E943F0468F39923B1F3552391F3951BD8
:100CD000550BBB27AA2762177307840738F09F5F5D
:100CE0005F4F220F331F441FAA1FA9F335D00E2ECA
:100CF0003AF0E0E832D091505040E695001CCAF737
:100D00002BD0FE2F29D0660F771F881FBB1F2617F9
:100D100037074807AB07B0E809F0BB0B802DBF01D0
:100D2000FF2793585F4F3AF09E3F510578F00C949F
:100D300017040C9462045F3FE4F3983ED4F3869565
:100D400077956795B795F7959F5FC9F7880F911DC0
:100D50009695879597F90895E1E0660F771F881FAC
:100D6000BB1F621773078407BA0720F0621B730B5F
:100D7000840BBA0BEE1F88F7E09508959F3F31F082
:100D8000915020F4879577956795B795880F911DB9
:100D90009695879597F9089597FB072E16F400947A
:100DA00007D077FD09D00E94E00607FC05D03EF48D
:100DB000909581959F4F0895709561957F4F089507
:100DC000AA1BBB1B51E107C0AA1FBB1FA617B70771
:100DD00010F0A61BB70B881F991F5A95A9F780958D
:0C0DE0009095BC01CD010895F894FFCF60
:100DEC005B4845494748545D2020414E474C4520BF
:100DFC00002048454947485420205B414E474C450C
:100E0C005D0020484549474854202020414E474C1E
:100E1C004520005B002030302E3020202020203058
:040E2C00302E300034
:00000001FF
